{
	"data": {
		"bytecode": {
			"linkReferences": {},
			"object": "608060405234801562000010575f80fd5b50620000586040518060400160405280601b81526020017f4f776e657220636f6e7472616374206465706c6f7965642062793a0000000000815250336200009d60201b60201c565b335f806101000a81548173ffffffffffffffffffffffffffffffffffffffff021916908373ffffffffffffffffffffffffffffffffffffffff160217905550620002e1565b6200013f8282604051602401620000b692919062000282565b6040516020818303038152906040527f319af333000000000000000000000000000000000000000000000000000000007bffffffffffffffffffffffffffffffffffffffffffffffffffffffff19166020820180517bffffffffffffffffffffffffffffffffffffffffffffffffffffffff83818316178352505050506200014360201b60201c565b5050565b6200016981620001646200016c60201b62001a64176200018b60201b60201c565b60201c565b50565b5f6a636f6e736f6c652e6c6f6790505f80835160208501845afa505050565b6200019f60201b62001f4917819050919050565b620001a9620002b4565b565b5f81519050919050565b5f82825260208201905092915050565b5f5b83811015620001e4578082015181840152602081019050620001c7565b5f8484015250505050565b5f601f19601f8301169050919050565b5f6200020b82620001ab565b620002178185620001b5565b935062000229818560208601620001c5565b6200023481620001ef565b840191505092915050565b5f73ffffffffffffffffffffffffffffffffffffffff82169050919050565b5f6200026a826200023f565b9050919050565b6200027c816200025e565b82525050565b5f6040820190508181035f8301526200029c8185620001ff565b9050620002ad602083018462000271565b9392505050565b7f4e487b71000000000000000000000000000000000000000000000000000000005f52605160045260245ffd5b61326880620002ef5f395ff3fe608060405234801561000f575f80fd5b50600436106100e8575f3560e01c8063a3733a1f1161008a578063b4753ed311610064578063b4753ed314610235578063cdeeb70f14610253578063da08596b14610283578063e4f12fbb1461029f576100e8565b8063a3733a1f146101cc578063acdcc16f146101e8578063b381877114610204576100e8565b806365da6696116100c657806365da6696146101565780636786640314610174578063893d20e8146101905780638f84aa09146101ae576100e8565b806318ecd5c0146100ec5780632a166564146101085780635425c28914610138575b5f80fd5b610106600480360381019061010191906120f0565b6102cf565b005b610122600480360381019061011d91906120f0565b610526565b60405161012f9190612148565b60405180910390f35b610140610716565b60405161014d91906124bc565b60405180910390f35b61015e6109d2565b60405161016b91906124bc565b60405180910390f35b61018e60048036038101906101899190612870565b6109e1565b005b610198610bc9565b6040516101a591906128d9565b60405180910390f35b6101b6610bf0565b6040516101c391906128d9565b60405180910390f35b6101e660048036038101906101e191906128f2565b610c13565b005b61020260048036038101906101fd919061295e565b611108565b005b61021e600480360381019061021991906129ae565b61110d565b60405161022c929190612bed565b60405180910390f35b61023d61112f565b60405161024a91906124bc565b60405180910390f35b61026d600480360381019061026891906120f0565b6114eb565b60405161027a9190612cd7565b60405180910390f35b61029d60048036038101906102989190612db2565b611a47565b005b6102b960048036038101906102b491906120f0565b611a4a565b6040516102c69190612cd7565b60405180910390f35b5f8054906101000a900473ffffffffffffffffffffffffffffffffffffffff1673ffffffffffffffffffffffffffffffffffffffff163373ffffffffffffffffffffffffffffffffffffffff1614610353576040517f30cd747100000000000000000000000000000000000000000000000000000000815260040160405180910390fd5b60016004811115610367576103666122e7565b5b81600481111561037a576103796122e7565b5b036103dc575f60015f8473ffffffffffffffffffffffffffffffffffffffff1673ffffffffffffffffffffffffffffffffffffffff1681526020019081526020015f2060020160016101000a81548160ff021916908315150217905550610522565b600260048111156103f0576103ef6122e7565b5b816004811115610403576104026122e7565b5b03610465575f60025f8473ffffffffffffffffffffffffffffffffffffffff1673ffffffffffffffffffffffffffffffffffffffff1681526020019081526020015f2060020160016101000a81548160ff021916908315150217905550610521565b60036004811115610479576104786122e7565b5b81600481111561048c5761048b6122e7565b5b036104ee575f60035f8473ffffffffffffffffffffffffffffffffffffffff1673ffffffffffffffffffffffffffffffffffffffff1681526020019081526020015f2060020160016101000a81548160ff021916908315150217905550610520565b6040517f817a01f800000000000000000000000000000000000000000000000000000000815260040160405180910390fd5b5b5b5050565b5f6001600481111561053b5761053a6122e7565b5b82600481111561054e5761054d6122e7565b5b036105a85760015f8473ffffffffffffffffffffffffffffffffffffffff1673ffffffffffffffffffffffffffffffffffffffff1681526020019081526020015f2060020160019054906101000a900460ff169050610710565b600260048111156105bc576105bb6122e7565b5b8260048111156105cf576105ce6122e7565b5b036106295760025f8473ffffffffffffffffffffffffffffffffffffffff1673ffffffffffffffffffffffffffffffffffffffff1681526020019081526020015f2060020160019054906101000a900460ff169050610710565b6003600481111561063d5761063c6122e7565b5b8260048111156106505761064f6122e7565b5b036106aa5760035f8473ffffffffffffffffffffffffffffffffffffffff1673ffffffffffffffffffffffffffffffffffffffff1681526020019081526020015f2060020160019054906101000a900460ff169050610710565b5f60048111156106bd576106bc6122e7565b5b8260048111156106d0576106cf6122e7565b5b036106de5760019050610710565b6040517f817a01f800000000000000000000000000000000000000000000000000000000815260040160405180910390fd5b92915050565b60606004805480602002602001604051908101604052809291908181526020015f905b828210156109c9578382905f5260205f209060090201604051806101200160405290815f8201805461076a90612e26565b80601f016020809104026020016040519081016040528092919081815260200182805461079690612e26565b80156107e15780601f106107b8576101008083540402835291602001916107e1565b820191905f5260205f20905b8154815290600101906020018083116107c457829003601f168201915b505050505081526020016001820180546107fa90612e26565b80601f016020809104026020016040519081016040528092919081815260200182805461082690612e26565b80156108715780601f1061084857610100808354040283529160200191610871565b820191905f5260205f20905b81548152906001019060200180831161085457829003601f168201915b5050505050815260200160028201548152602001600382015481526020016004820154815260200160058201805480602002602001604051908101604052809291908181526020015f905b82821015610964578382905f5260205f200180546108d990612e26565b80601f016020809104026020016040519081016040528092919081815260200182805461090590612e26565b80156109505780601f1061092757610100808354040283529160200191610950565b820191905f5260205f20905b81548152906001019060200180831161093357829003601f168201915b5050505050815260200190600101906108bc565b5050505081526020016006820154815260200160078201548152602001600882015f9054906101000a900460ff1660018111156109a4576109a36122e7565b5b60018111156109b6576109b56122e7565b5b8152505081526020019060010190610739565b50505050905090565b60606109dc61112f565b905090565b5f73ffffffffffffffffffffffffffffffffffffffff163373ffffffffffffffffffffffffffffffffffffffff1603610a4f576040517f08c379a0000000000000000000000000000000000000000000000000000000008152600401610a4690612eb0565b60405180910390fd5b5f73ffffffffffffffffffffffffffffffffffffffff1660015f3373ffffffffffffffffffffffffffffffffffffffff1673ffffffffffffffffffffffffffffffffffffffff1681526020019081526020015f205f015f9054906101000a900473ffffffffffffffffffffffffffffffffffffffff1673ffffffffffffffffffffffffffffffffffffffff1603610b1b576040517f08c379a0000000000000000000000000000000000000000000000000000000008152600401610b1290612f18565b60405180910390fd5b60016004811115610b2f57610b2e6122e7565b5b60015f3373ffffffffffffffffffffffffffffffffffffffff1673ffffffffffffffffffffffffffffffffffffffff1681526020019081526020015f206002015f9054906101000a900460ff166004811115610b8e57610b8d6122e7565b5b14610bc5576040517f6540b83300000000000000000000000000000000000000000000000000000000815260040160405180910390fd5b5050565b5f805f9054906101000a900473ffffffffffffffffffffffffffffffffffffffff16905090565b5f8054906101000a900473ffffffffffffffffffffffffffffffffffffffff1681565b5f8054906101000a900473ffffffffffffffffffffffffffffffffffffffff1673ffffffffffffffffffffffffffffffffffffffff163373ffffffffffffffffffffffffffffffffffffffff1614610c97576040517f30cd747100000000000000000000000000000000000000000000000000000000815260040160405180910390fd5b5f6004811115610caa57610ca96122e7565b5b816004811115610cbd57610cbc6122e7565b5b03610cf4576040517fda55570300000000000000000000000000000000000000000000000000000000815260040160405180910390fd5b5f73ffffffffffffffffffffffffffffffffffffffff168373ffffffffffffffffffffffffffffffffffffffff1603610d2b575f80fd5b5f60405180608001604052808573ffffffffffffffffffffffffffffffffffffffff168152602001848152602001836004811115610d6c57610d6b6122e7565b5b815260200160011515815250905060016004811115610d8e57610d8d6122e7565b5b826004811115610da157610da06122e7565b5b03610e95578060015f8673ffffffffffffffffffffffffffffffffffffffff1673ffffffffffffffffffffffffffffffffffffffff1681526020019081526020015f205f820151815f015f6101000a81548173ffffffffffffffffffffffffffffffffffffffff021916908373ffffffffffffffffffffffffffffffffffffffff1602179055506020820151816001019081610e3d91906130d3565b506040820151816002015f6101000a81548160ff02191690836004811115610e6857610e676122e7565b5b021790555060608201518160020160016101000a81548160ff0219169083151502179055509050506110c9565b60026004811115610ea957610ea86122e7565b5b826004811115610ebc57610ebb6122e7565b5b03610fb0578060025f8673ffffffffffffffffffffffffffffffffffffffff1673ffffffffffffffffffffffffffffffffffffffff1681526020019081526020015f205f820151815f015f6101000a81548173ffffffffffffffffffffffffffffffffffffffff021916908373ffffffffffffffffffffffffffffffffffffffff1602179055506020820151816001019081610f5891906130d3565b506040820151816002015f6101000a81548160ff02191690836004811115610f8357610f826122e7565b5b021790555060608201518160020160016101000a81548160ff0219169083151502179055509050506110c8565b60036004811115610fc457610fc36122e7565b5b826004811115610fd757610fd66122e7565b5b036110c7578060035f8673ffffffffffffffffffffffffffffffffffffffff1673ffffffffffffffffffffffffffffffffffffffff1681526020019081526020015f205f820151815f015f6101000a81548173ffffffffffffffffffffffffffffffffffffffff021916908373ffffffffffffffffffffffffffffffffffffffff160217905550602082015181600101908161107391906130d3565b506040820151816002015f6101000a81548160ff0219169083600481111561109e5761109d6122e7565b5b021790555060608201518160020160016101000a81548160ff0219169083151502179055509050505b5b5b7ff6313d7f99e7f608341f82b433954d030c4f31a21d6585a87969683cbbff880b82856040516110fa9291906131b1565b60405180910390a150505050565b505050565b611115611f53565b61111d611fab565b61112683611a83565b91509150915091565b60605f60065f3373ffffffffffffffffffffffffffffffffffffffff1673ffffffffffffffffffffffffffffffffffffffff1681526020019081526020015f208054806020026020016040519081016040528092919081815260200182805480156111b757602002820191905f5260205f20905b8154815260200190600101908083116111a3575b505050505090505f815167ffffffffffffffff8111156111da576111d96124e0565b5b60405190808252806020026020018201604052801561121357816020015b611200611f53565b8152602001906001900390816111f85790505b5090505f5b82518110156114e25760075f848381518110611237576112366131d8565b5b602002602001015181526020019081526020015f20604051806101200160405290815f8201805461126790612e26565b80601f016020809104026020016040519081016040528092919081815260200182805461129390612e26565b80156112de5780601f106112b5576101008083540402835291602001916112de565b820191905f5260205f20905b8154815290600101906020018083116112c157829003601f168201915b505050505081526020016001820180546112f790612e26565b80601f016020809104026020016040519081016040528092919081815260200182805461132390612e26565b801561136e5780601f106113455761010080835404028352916020019161136e565b820191905f5260205f20905b81548152906001019060200180831161135157829003601f168201915b5050505050815260200160028201548152602001600382015481526020016004820154815260200160058201805480602002602001604051908101604052809291908181526020015f905b82821015611461578382905f5260205f200180546113d690612e26565b80601f016020809104026020016040519081016040528092919081815260200182805461140290612e26565b801561144d5780601f106114245761010080835404028352916020019161144d565b820191905f5260205f20905b81548152906001019060200180831161143057829003601f168201915b5050505050815260200190600101906113b9565b5050505081526020016006820154815260200160078201548152602001600882015f9054906101000a900460ff1660018111156114a1576114a06122e7565b5b60018111156114b3576114b26122e7565b5b815250508282815181106114ca576114c96131d8565b5b60200260200101819052508080600101915050611218565b50809250505090565b6114f3611fe5565b60016004811115611507576115066122e7565b5b82600481111561151a576115196122e7565b5b036116a75760015f8473ffffffffffffffffffffffffffffffffffffffff1673ffffffffffffffffffffffffffffffffffffffff1681526020019081526020015f206040518060800160405290815f82015f9054906101000a900473ffffffffffffffffffffffffffffffffffffffff1673ffffffffffffffffffffffffffffffffffffffff1673ffffffffffffffffffffffffffffffffffffffff1681526020016001820180546115cb90612e26565b80601f01602080910402602001604051908101604052809291908181526020018280546115f790612e26565b80156116425780601f1061161957610100808354040283529160200191611642565b820191905f5260205f20905b81548152906001019060200180831161162557829003601f168201915b50505050508152602001600282015f9054906101000a900460ff16600481111561166f5761166e6122e7565b5b6004811115611681576116806122e7565b5b81526020016002820160019054906101000a900460ff1615151515815250509050611a41565b600260048111156116bb576116ba6122e7565b5b8260048111156116ce576116cd6122e7565b5b0361185b5760025f8473ffffffffffffffffffffffffffffffffffffffff1673ffffffffffffffffffffffffffffffffffffffff1681526020019081526020015f206040518060800160405290815f82015f9054906101000a900473ffffffffffffffffffffffffffffffffffffffff1673ffffffffffffffffffffffffffffffffffffffff1673ffffffffffffffffffffffffffffffffffffffff16815260200160018201805461177f90612e26565b80601f01602080910402602001604051908101604052809291908181526020018280546117ab90612e26565b80156117f65780601f106117cd576101008083540402835291602001916117f6565b820191905f5260205f20905b8154815290600101906020018083116117d957829003601f168201915b50505050508152602001600282015f9054906101000a900460ff166004811115611823576118226122e7565b5b6004811115611835576118346122e7565b5b81526020016002820160019054906101000a900460ff1615151515815250509050611a41565b6003600481111561186f5761186e6122e7565b5b826004811115611882576118816122e7565b5b03611a0f5760035f8473ffffffffffffffffffffffffffffffffffffffff1673ffffffffffffffffffffffffffffffffffffffff1681526020019081526020015f206040518060800160405290815f82015f9054906101000a900473ffffffffffffffffffffffffffffffffffffffff1673ffffffffffffffffffffffffffffffffffffffff1673ffffffffffffffffffffffffffffffffffffffff16815260200160018201805461193390612e26565b80601f016020809104026020016040519081016040528092919081815260200182805461195f90612e26565b80156119aa5780601f10611981576101008083540402835291602001916119aa565b820191905f5260205f20905b81548152906001019060200180831161198d57829003601f168201915b50505050508152602001600282015f9054906101000a900460ff1660048111156119d7576119d66122e7565b5b60048111156119e9576119e86122e7565b5b81526020016002820160019054906101000a900460ff1615151515815250509050611a41565b6040517f817a01f800000000000000000000000000000000000000000000000000000000815260040160405180910390fd5b92915050565b50565b611a52611fe5565b611a5c83836114eb565b905092915050565b5f6a636f6e736f6c652e6c6f6790505f80835160208501845afa505050565b611a8b611f53565b611a93611fab565b60075f8481526020019081526020015f2060055f8581526020019081526020015f2081604051806101200160405290815f82018054611ad190612e26565b80601f0160208091040260200160405190810160405280929190818152602001828054611afd90612e26565b8015611b485780601f10611b1f57610100808354040283529160200191611b48565b820191905f5260205f20905b815481529060010190602001808311611b2b57829003601f168201915b50505050508152602001600182018054611b6190612e26565b80601f0160208091040260200160405190810160405280929190818152602001828054611b8d90612e26565b8015611bd85780601f10611baf57610100808354040283529160200191611bd8565b820191905f5260205f20905b815481529060010190602001808311611bbb57829003601f168201915b5050505050815260200160028201548152602001600382015481526020016004820154815260200160058201805480602002602001604051908101604052809291908181526020015f905b82821015611ccb578382905f5260205f20018054611c4090612e26565b80601f0160208091040260200160405190810160405280929190818152602001828054611c6c90612e26565b8015611cb75780601f10611c8e57610100808354040283529160200191611cb7565b820191905f5260205f20905b815481529060010190602001808311611c9a57829003601f168201915b505050505081526020019060010190611c23565b5050505081526020016006820154815260200160078201548152602001600882015f9054906101000a900460ff166001811115611d0b57611d0a6122e7565b5b6001811115611d1d57611d1c6122e7565b5b815250509150806040518060800160405290815f82016040518060400160405290815f82015f9054906101000a900473ffffffffffffffffffffffffffffffffffffffff1673ffffffffffffffffffffffffffffffffffffffff1673ffffffffffffffffffffffffffffffffffffffff1681526020016001820154815250508152602001600282016040518060400160405290815f82015f9054906101000a900473ffffffffffffffffffffffffffffffffffffffff1673ffffffffffffffffffffffffffffffffffffffff1673ffffffffffffffffffffffffffffffffffffffff1681526020016001820154815250508152602001600482016040518060400160405290815f82015f9054906101000a900473ffffffffffffffffffffffffffffffffffffffff1673ffffffffffffffffffffffffffffffffffffffff1673ffffffffffffffffffffffffffffffffffffffff168152602001600182015481525050815260200160068201805480602002602001604051908101604052809291908181526020015f905b82821015611f36578382905f5260205f2090600202016040518060400160405290815f82015f9054906101000a900473ffffffffffffffffffffffffffffffffffffffff1673ffffffffffffffffffffffffffffffffffffffff1673ffffffffffffffffffffffffffffffffffffffff16815260200160018201548152505081526020019060010190611ea8565b5050505081525050905091509150915091565b611f51613205565b565b60405180610120016040528060608152602001606081526020015f81526020015f81526020015f8152602001606081526020015f81526020015f81526020015f6001811115611fa557611fa46122e7565b5b81525090565b6040518060800160405280611fbe612034565b8152602001611fcb612034565b8152602001611fd8612034565b8152602001606081525090565b60405180608001604052805f73ffffffffffffffffffffffffffffffffffffffff168152602001606081526020015f6004811115612026576120256122e7565b5b81526020015f151581525090565b60405180604001604052805f73ffffffffffffffffffffffffffffffffffffffff1681526020015f81525090565b5f604051905090565b5f80fd5b5f80fd5b5f73ffffffffffffffffffffffffffffffffffffffff82169050919050565b5f61209c82612073565b9050919050565b6120ac81612092565b81146120b6575f80fd5b50565b5f813590506120c7816120a3565b92915050565b600581106120d9575f80fd5b50565b5f813590506120ea816120cd565b92915050565b5f80604083850312156121065761210561206b565b5b5f612113858286016120b9565b9250506020612124858286016120dc565b9150509250929050565b5f8115159050919050565b6121428161212e565b82525050565b5f60208201905061215b5f830184612139565b92915050565b5f81519050919050565b5f82825260208201905092915050565b5f819050602082019050919050565b5f81519050919050565b5f82825260208201905092915050565b5f5b838110156121c15780820151818401526020810190506121a6565b5f8484015250505050565b5f601f19601f8301169050919050565b5f6121e68261218a565b6121f08185612194565b93506122008185602086016121a4565b612209816121cc565b840191505092915050565b5f819050919050565b61222681612214565b82525050565b5f81519050919050565b5f82825260208201905092915050565b5f819050602082019050919050565b5f61226083836121dc565b905092915050565b5f602082019050919050565b5f61227e8261222c565b6122888185612236565b93508360208202850161229a85612246565b805f5b858110156122d557848403895281516122b68582612255565b94506122c183612268565b925060208a0199505060018101905061229d565b50829750879550505050505092915050565b7f4e487b71000000000000000000000000000000000000000000000000000000005f52602160045260245ffd5b60028110612325576123246122e7565b5b50565b5f81905061233582612314565b919050565b5f61234482612328565b9050919050565b6123548161233a565b82525050565b5f61012083015f8301518482035f86015261237582826121dc565b9150506020830151848203602086015261238f82826121dc565b91505060408301516123a4604086018261221d565b5060608301516123b7606086018261221d565b5060808301516123ca608086018261221d565b5060a083015184820360a08601526123e28282612274565b91505060c08301516123f760c086018261221d565b5060e083015161240a60e086018261221d565b5061010083015161241f61010086018261234b565b508091505092915050565b5f612435838361235a565b905092915050565b5f602082019050919050565b5f61245382612161565b61245d818561216b565b93508360208202850161246f8561217b565b805f5b858110156124aa578484038952815161248b858261242a565b94506124968361243d565b925060208a01995050600181019050612472565b50829750879550505050505092915050565b5f6020820190508181035f8301526124d48184612449565b905092915050565b5f80fd5b7f4e487b71000000000000000000000000000000000000000000000000000000005f52604160045260245ffd5b612516826121cc565b810181811067ffffffffffffffff82111715612535576125346124e0565b5b80604052505050565b5f612547612062565b9050612553828261250d565b919050565b5f80fd5b5f80fd5b5f80fd5b5f67ffffffffffffffff82111561257e5761257d6124e0565b5b612587826121cc565b9050602081019050919050565b828183375f83830152505050565b5f6125b46125af84612564565b61253e565b9050828152602081018484840111156125d0576125cf612560565b5b6125db848285612594565b509392505050565b5f82601f8301126125f7576125f661255c565b5b81356126078482602086016125a2565b91505092915050565b61261981612214565b8114612623575f80fd5b50565b5f8135905061263481612610565b92915050565b5f67ffffffffffffffff821115612654576126536124e0565b5b602082029050602081019050919050565b5f80fd5b5f61267b6126768461263a565b61253e565b9050808382526020820190506020840283018581111561269e5761269d612665565b5b835b818110156126e557803567ffffffffffffffff8111156126c3576126c261255c565b5b8086016126d089826125e3565b855260208501945050506020810190506126a0565b5050509392505050565b5f82601f8301126127035761270261255c565b5b8135612713848260208601612669565b91505092915050565b60028110612728575f80fd5b50565b5f813590506127398161271c565b92915050565b5f6101208284031215612755576127546124dc565b5b61276061012061253e565b90505f82013567ffffffffffffffff81111561277f5761277e612558565b5b61278b848285016125e3565b5f83015250602082013567ffffffffffffffff8111156127ae576127ad612558565b5b6127ba848285016125e3565b60208301525060406127ce84828501612626565b60408301525060606127e284828501612626565b60608301525060806127f684828501612626565b60808301525060a082013567ffffffffffffffff81111561281a57612819612558565b5b612826848285016126ef565b60a08301525060c061283a84828501612626565b60c08301525060e061284e84828501612626565b60e0830152506101006128638482850161272b565b6101008301525092915050565b5f80604083850312156128865761288561206b565b5b5f83013567ffffffffffffffff8111156128a3576128a261206f565b5b6128af8582860161273f565b92505060206128c085828601612626565b9150509250929050565b6128d381612092565b82525050565b5f6020820190506128ec5f8301846128ca565b92915050565b5f805f606084860312156129095761290861206b565b5b5f612916868287016120b9565b935050602084013567ffffffffffffffff8111156129375761293661206f565b5b612943868287016125e3565b9250506040612954868287016120dc565b9150509250925092565b5f805f606084860312156129755761297461206b565b5b5f612982868287016120b9565b935050602061299386828701612626565b92505060406129a486828701612626565b9150509250925092565b5f602082840312156129c3576129c261206b565b5b5f6129d084828501612626565b91505092915050565b5f61012083015f8301518482035f8601526129f482826121dc565b91505060208301518482036020860152612a0e82826121dc565b9150506040830151612a23604086018261221d565b506060830151612a36606086018261221d565b506080830151612a49608086018261221d565b5060a083015184820360a0860152612a618282612274565b91505060c0830151612a7660c086018261221d565b5060e0830151612a8960e086018261221d565b50610100830151612a9e61010086018261234b565b508091505092915050565b612ab281612092565b82525050565b604082015f820151612acc5f850182612aa9565b506020820151612adf602085018261221d565b50505050565b5f81519050919050565b5f82825260208201905092915050565b5f819050602082019050919050565b5f612b198383612ab8565b60408301905092915050565b5f602082019050919050565b5f612b3b82612ae5565b612b458185612aef565b9350612b5083612aff565b805f5b83811015612b80578151612b678882612b0e565b9750612b7283612b25565b925050600181019050612b53565b5085935050505092915050565b5f60e083015f830151612ba25f860182612ab8565b506020830151612bb56040860182612ab8565b506040830151612bc86080860182612ab8565b50606083015184820360c0860152612be08282612b31565b9150508091505092915050565b5f6040820190508181035f830152612c0581856129d9565b90508181036020830152612c198184612b8d565b90509392505050565b60058110612c3357612c326122e7565b5b50565b5f819050612c4382612c22565b919050565b5f612c5282612c36565b9050919050565b612c6281612c48565b82525050565b612c718161212e565b82525050565b5f608083015f830151612c8c5f860182612aa9565b5060208301518482036020860152612ca482826121dc565b9150506040830151612cb96040860182612c59565b506060830151612ccc6060860182612c68565b508091505092915050565b5f6020820190508181035f830152612cef8184612c77565b905092915050565b612d008161212e565b8114612d0a575f80fd5b50565b5f81359050612d1b81612cf7565b92915050565b5f60808284031215612d3657612d356124dc565b5b612d40608061253e565b90505f612d4f848285016120b9565b5f83015250602082013567ffffffffffffffff811115612d7257612d71612558565b5b612d7e848285016125e3565b6020830152506040612d92848285016120dc565b6040830152506060612da684828501612d0d565b60608301525092915050565b5f60208284031215612dc757612dc661206b565b5b5f82013567ffffffffffffffff811115612de457612de361206f565b5b612df084828501612d21565b91505092915050565b7f4e487b71000000000000000000000000000000000000000000000000000000005f52602260045260245ffd5b5f6002820490506001821680612e3d57607f821691505b602082108103612e5057612e4f612df9565b5b50919050565b5f82825260208201905092915050565b7f53656e646572206164647265737320697320656d7074790000000000000000005f82015250565b5f612e9a601783612e56565b9150612ea582612e66565b602082019050919050565b5f6020820190508181035f830152612ec781612e8e565b9050919050565b7f4d616e756661637475726572206c69737420656d7074790000000000000000005f82015250565b5f612f02601783612e56565b9150612f0d82612ece565b602082019050919050565b5f6020820190508181035f830152612f2f81612ef6565b9050919050565b5f819050815f5260205f209050919050565b5f6020601f8301049050919050565b5f82821b905092915050565b5f60088302612f927fffffffffffffffffffffffffffffffffffffffffffffffffffffffffffffffff82612f57565b612f9c8683612f57565b95508019841693508086168417925050509392505050565b5f819050919050565b5f612fd7612fd2612fcd84612214565b612fb4565b612214565b9050919050565b5f819050919050565b612ff083612fbd565b613004612ffc82612fde565b848454612f63565b825550505050565b5f90565b61301861300c565b613023818484612fe7565b505050565b5b818110156130465761303b5f82613010565b600181019050613029565b5050565b601f82111561308b5761305c81612f36565b61306584612f48565b81016020851015613074578190505b61308861308085612f48565b830182613028565b50505b505050565b5f82821c905092915050565b5f6130ab5f1984600802613090565b1980831691505092915050565b5f6130c3838361309c565b9150826002028217905092915050565b6130dc8261218a565b67ffffffffffffffff8111156130f5576130f46124e0565b5b6130ff8254612e26565b61310a82828561304a565b5f60209050601f83116001811461313b575f8415613129578287015190505b61313385826130b8565b86555061319a565b601f19841661314986612f36565b5f5b828110156131705784890151825560018201915060208501945060208101905061314b565b8683101561318d5784890151613189601f89168261309c565b8355505b6001600288020188555050505b505050505050565b6131ab81612c48565b82525050565b5f6040820190506131c45f8301856131a2565b6131d160208301846128ca565b9392505050565b7f4e487b71000000000000000000000000000000000000000000000000000000005f52603260045260245ffd5b7f4e487b71000000000000000000000000000000000000000000000000000000005f52605160045260245ffdfea264697066735822122090f3473819f790e19543a6d74aaacabb1e5defef02ed0e8e5605c9c953d6f92464736f6c63430008160033",
			"opcodes": "PUSH1 0x80 PUSH1 0x40 MSTORE CALLVALUE DUP1 ISZERO PUSH3 0x10 JUMPI PUSH0 DUP1 REVERT JUMPDEST POP PUSH3 0x58 PUSH1 0x40 MLOAD DUP1 PUSH1 0x40 ADD PUSH1 0x40 MSTORE DUP1 PUSH1 0x1B DUP2 MSTORE PUSH1 0x20 ADD PUSH32 0x4F776E657220636F6E7472616374206465706C6F7965642062793A0000000000 DUP2 MSTORE POP CALLER PUSH3 0x9D PUSH1 0x20 SHL PUSH1 0x20 SHR JUMP JUMPDEST CALLER PUSH0 DUP1 PUSH2 0x100 EXP DUP2 SLOAD DUP2 PUSH20 0xFFFFFFFFFFFFFFFFFFFFFFFFFFFFFFFFFFFFFFFF MUL NOT AND SWAP1 DUP4 PUSH20 0xFFFFFFFFFFFFFFFFFFFFFFFFFFFFFFFFFFFFFFFF AND MUL OR SWAP1 SSTORE POP PUSH3 0x2E1 JUMP JUMPDEST PUSH3 0x13F DUP3 DUP3 PUSH1 0x40 MLOAD PUSH1 0x24 ADD PUSH3 0xB6 SWAP3 SWAP2 SWAP1 PUSH3 0x282 JUMP JUMPDEST PUSH1 0x40 MLOAD PUSH1 0x20 DUP2 DUP4 SUB SUB DUP2 MSTORE SWAP1 PUSH1 0x40 MSTORE PUSH32 0x319AF33300000000000000000000000000000000000000000000000000000000 PUSH28 0xFFFFFFFFFFFFFFFFFFFFFFFFFFFFFFFFFFFFFFFFFFFFFFFFFFFFFFFF NOT AND PUSH1 0x20 DUP3 ADD DUP1 MLOAD PUSH28 0xFFFFFFFFFFFFFFFFFFFFFFFFFFFFFFFFFFFFFFFFFFFFFFFFFFFFFFFF DUP4 DUP2 DUP4 AND OR DUP4 MSTORE POP POP POP POP PUSH3 0x143 PUSH1 0x20 SHL PUSH1 0x20 SHR JUMP JUMPDEST POP POP JUMP JUMPDEST PUSH3 0x169 DUP2 PUSH3 0x164 PUSH3 0x16C PUSH1 0x20 SHL PUSH3 0x1A64 OR PUSH3 0x18B PUSH1 0x20 SHL PUSH1 0x20 SHR JUMP JUMPDEST PUSH1 0x20 SHR JUMP JUMPDEST POP JUMP JUMPDEST PUSH0 PUSH11 0x636F6E736F6C652E6C6F67 SWAP1 POP PUSH0 DUP1 DUP4 MLOAD PUSH1 0x20 DUP6 ADD DUP5 GAS STATICCALL POP POP POP JUMP JUMPDEST PUSH3 0x19F PUSH1 0x20 SHL PUSH3 0x1F49 OR DUP2 SWAP1 POP SWAP2 SWAP1 POP JUMP JUMPDEST PUSH3 0x1A9 PUSH3 0x2B4 JUMP JUMPDEST JUMP JUMPDEST PUSH0 DUP2 MLOAD SWAP1 POP SWAP2 SWAP1 POP JUMP JUMPDEST PUSH0 DUP3 DUP3 MSTORE PUSH1 0x20 DUP3 ADD SWAP1 POP SWAP3 SWAP2 POP POP JUMP JUMPDEST PUSH0 JUMPDEST DUP4 DUP2 LT ISZERO PUSH3 0x1E4 JUMPI DUP1 DUP3 ADD MLOAD DUP2 DUP5 ADD MSTORE PUSH1 0x20 DUP2 ADD SWAP1 POP PUSH3 0x1C7 JUMP JUMPDEST PUSH0 DUP5 DUP5 ADD MSTORE POP POP POP POP JUMP JUMPDEST PUSH0 PUSH1 0x1F NOT PUSH1 0x1F DUP4 ADD AND SWAP1 POP SWAP2 SWAP1 POP JUMP JUMPDEST PUSH0 PUSH3 0x20B DUP3 PUSH3 0x1AB JUMP JUMPDEST PUSH3 0x217 DUP2 DUP6 PUSH3 0x1B5 JUMP JUMPDEST SWAP4 POP PUSH3 0x229 DUP2 DUP6 PUSH1 0x20 DUP7 ADD PUSH3 0x1C5 JUMP JUMPDEST PUSH3 0x234 DUP2 PUSH3 0x1EF JUMP JUMPDEST DUP5 ADD SWAP2 POP POP SWAP3 SWAP2 POP POP JUMP JUMPDEST PUSH0 PUSH20 0xFFFFFFFFFFFFFFFFFFFFFFFFFFFFFFFFFFFFFFFF DUP3 AND SWAP1 POP SWAP2 SWAP1 POP JUMP JUMPDEST PUSH0 PUSH3 0x26A DUP3 PUSH3 0x23F JUMP JUMPDEST SWAP1 POP SWAP2 SWAP1 POP JUMP JUMPDEST PUSH3 0x27C DUP2 PUSH3 0x25E JUMP JUMPDEST DUP3 MSTORE POP POP JUMP JUMPDEST PUSH0 PUSH1 0x40 DUP3 ADD SWAP1 POP DUP2 DUP2 SUB PUSH0 DUP4 ADD MSTORE PUSH3 0x29C DUP2 DUP6 PUSH3 0x1FF JUMP JUMPDEST SWAP1 POP PUSH3 0x2AD PUSH1 0x20 DUP4 ADD DUP5 PUSH3 0x271 JUMP JUMPDEST SWAP4 SWAP3 POP POP POP JUMP JUMPDEST PUSH32 0x4E487B7100000000000000000000000000000000000000000000000000000000 PUSH0 MSTORE PUSH1 0x51 PUSH1 0x4 MSTORE PUSH1 0x24 PUSH0 REVERT JUMPDEST PUSH2 0x3268 DUP1 PUSH3 0x2EF PUSH0 CODECOPY PUSH0 RETURN INVALID PUSH1 0x80 PUSH1 0x40 MSTORE CALLVALUE DUP1 ISZERO PUSH2 0xF JUMPI PUSH0 DUP1 REVERT JUMPDEST POP PUSH1 0x4 CALLDATASIZE LT PUSH2 0xE8 JUMPI PUSH0 CALLDATALOAD PUSH1 0xE0 SHR DUP1 PUSH4 0xA3733A1F GT PUSH2 0x8A JUMPI DUP1 PUSH4 0xB4753ED3 GT PUSH2 0x64 JUMPI DUP1 PUSH4 0xB4753ED3 EQ PUSH2 0x235 JUMPI DUP1 PUSH4 0xCDEEB70F EQ PUSH2 0x253 JUMPI DUP1 PUSH4 0xDA08596B EQ PUSH2 0x283 JUMPI DUP1 PUSH4 0xE4F12FBB EQ PUSH2 0x29F JUMPI PUSH2 0xE8 JUMP JUMPDEST DUP1 PUSH4 0xA3733A1F EQ PUSH2 0x1CC JUMPI DUP1 PUSH4 0xACDCC16F EQ PUSH2 0x1E8 JUMPI DUP1 PUSH4 0xB3818771 EQ PUSH2 0x204 JUMPI PUSH2 0xE8 JUMP JUMPDEST DUP1 PUSH4 0x65DA6696 GT PUSH2 0xC6 JUMPI DUP1 PUSH4 0x65DA6696 EQ PUSH2 0x156 JUMPI DUP1 PUSH4 0x67866403 EQ PUSH2 0x174 JUMPI DUP1 PUSH4 0x893D20E8 EQ PUSH2 0x190 JUMPI DUP1 PUSH4 0x8F84AA09 EQ PUSH2 0x1AE JUMPI PUSH2 0xE8 JUMP JUMPDEST DUP1 PUSH4 0x18ECD5C0 EQ PUSH2 0xEC JUMPI DUP1 PUSH4 0x2A166564 EQ PUSH2 0x108 JUMPI DUP1 PUSH4 0x5425C289 EQ PUSH2 0x138 JUMPI JUMPDEST PUSH0 DUP1 REVERT JUMPDEST PUSH2 0x106 PUSH1 0x4 DUP1 CALLDATASIZE SUB DUP2 ADD SWAP1 PUSH2 0x101 SWAP2 SWAP1 PUSH2 0x20F0 JUMP JUMPDEST PUSH2 0x2CF JUMP JUMPDEST STOP JUMPDEST PUSH2 0x122 PUSH1 0x4 DUP1 CALLDATASIZE SUB DUP2 ADD SWAP1 PUSH2 0x11D SWAP2 SWAP1 PUSH2 0x20F0 JUMP JUMPDEST PUSH2 0x526 JUMP JUMPDEST PUSH1 0x40 MLOAD PUSH2 0x12F SWAP2 SWAP1 PUSH2 0x2148 JUMP JUMPDEST PUSH1 0x40 MLOAD DUP1 SWAP2 SUB SWAP1 RETURN JUMPDEST PUSH2 0x140 PUSH2 0x716 JUMP JUMPDEST PUSH1 0x40 MLOAD PUSH2 0x14D SWAP2 SWAP1 PUSH2 0x24BC JUMP JUMPDEST PUSH1 0x40 MLOAD DUP1 SWAP2 SUB SWAP1 RETURN JUMPDEST PUSH2 0x15E PUSH2 0x9D2 JUMP JUMPDEST PUSH1 0x40 MLOAD PUSH2 0x16B SWAP2 SWAP1 PUSH2 0x24BC JUMP JUMPDEST PUSH1 0x40 MLOAD DUP1 SWAP2 SUB SWAP1 RETURN JUMPDEST PUSH2 0x18E PUSH1 0x4 DUP1 CALLDATASIZE SUB DUP2 ADD SWAP1 PUSH2 0x189 SWAP2 SWAP1 PUSH2 0x2870 JUMP JUMPDEST PUSH2 0x9E1 JUMP JUMPDEST STOP JUMPDEST PUSH2 0x198 PUSH2 0xBC9 JUMP JUMPDEST PUSH1 0x40 MLOAD PUSH2 0x1A5 SWAP2 SWAP1 PUSH2 0x28D9 JUMP JUMPDEST PUSH1 0x40 MLOAD DUP1 SWAP2 SUB SWAP1 RETURN JUMPDEST PUSH2 0x1B6 PUSH2 0xBF0 JUMP JUMPDEST PUSH1 0x40 MLOAD PUSH2 0x1C3 SWAP2 SWAP1 PUSH2 0x28D9 JUMP JUMPDEST PUSH1 0x40 MLOAD DUP1 SWAP2 SUB SWAP1 RETURN JUMPDEST PUSH2 0x1E6 PUSH1 0x4 DUP1 CALLDATASIZE SUB DUP2 ADD SWAP1 PUSH2 0x1E1 SWAP2 SWAP1 PUSH2 0x28F2 JUMP JUMPDEST PUSH2 0xC13 JUMP JUMPDEST STOP JUMPDEST PUSH2 0x202 PUSH1 0x4 DUP1 CALLDATASIZE SUB DUP2 ADD SWAP1 PUSH2 0x1FD SWAP2 SWAP1 PUSH2 0x295E JUMP JUMPDEST PUSH2 0x1108 JUMP JUMPDEST STOP JUMPDEST PUSH2 0x21E PUSH1 0x4 DUP1 CALLDATASIZE SUB DUP2 ADD SWAP1 PUSH2 0x219 SWAP2 SWAP1 PUSH2 0x29AE JUMP JUMPDEST PUSH2 0x110D JUMP JUMPDEST PUSH1 0x40 MLOAD PUSH2 0x22C SWAP3 SWAP2 SWAP1 PUSH2 0x2BED JUMP JUMPDEST PUSH1 0x40 MLOAD DUP1 SWAP2 SUB SWAP1 RETURN JUMPDEST PUSH2 0x23D PUSH2 0x112F JUMP JUMPDEST PUSH1 0x40 MLOAD PUSH2 0x24A SWAP2 SWAP1 PUSH2 0x24BC JUMP JUMPDEST PUSH1 0x40 MLOAD DUP1 SWAP2 SUB SWAP1 RETURN JUMPDEST PUSH2 0x26D PUSH1 0x4 DUP1 CALLDATASIZE SUB DUP2 ADD SWAP1 PUSH2 0x268 SWAP2 SWAP1 PUSH2 0x20F0 JUMP JUMPDEST PUSH2 0x14EB JUMP JUMPDEST PUSH1 0x40 MLOAD PUSH2 0x27A SWAP2 SWAP1 PUSH2 0x2CD7 JUMP JUMPDEST PUSH1 0x40 MLOAD DUP1 SWAP2 SUB SWAP1 RETURN JUMPDEST PUSH2 0x29D PUSH1 0x4 DUP1 CALLDATASIZE SUB DUP2 ADD SWAP1 PUSH2 0x298 SWAP2 SWAP1 PUSH2 0x2DB2 JUMP JUMPDEST PUSH2 0x1A47 JUMP JUMPDEST STOP JUMPDEST PUSH2 0x2B9 PUSH1 0x4 DUP1 CALLDATASIZE SUB DUP2 ADD SWAP1 PUSH2 0x2B4 SWAP2 SWAP1 PUSH2 0x20F0 JUMP JUMPDEST PUSH2 0x1A4A JUMP JUMPDEST PUSH1 0x40 MLOAD PUSH2 0x2C6 SWAP2 SWAP1 PUSH2 0x2CD7 JUMP JUMPDEST PUSH1 0x40 MLOAD DUP1 SWAP2 SUB SWAP1 RETURN JUMPDEST PUSH0 DUP1 SLOAD SWAP1 PUSH2 0x100 EXP SWAP1 DIV PUSH20 0xFFFFFFFFFFFFFFFFFFFFFFFFFFFFFFFFFFFFFFFF AND PUSH20 0xFFFFFFFFFFFFFFFFFFFFFFFFFFFFFFFFFFFFFFFF AND CALLER PUSH20 0xFFFFFFFFFFFFFFFFFFFFFFFFFFFFFFFFFFFFFFFF AND EQ PUSH2 0x353 JUMPI PUSH1 0x40 MLOAD PUSH32 0x30CD747100000000000000000000000000000000000000000000000000000000 DUP2 MSTORE PUSH1 0x4 ADD PUSH1 0x40 MLOAD DUP1 SWAP2 SUB SWAP1 REVERT JUMPDEST PUSH1 0x1 PUSH1 0x4 DUP2 GT ISZERO PUSH2 0x367 JUMPI PUSH2 0x366 PUSH2 0x22E7 JUMP JUMPDEST JUMPDEST DUP2 PUSH1 0x4 DUP2 GT ISZERO PUSH2 0x37A JUMPI PUSH2 0x379 PUSH2 0x22E7 JUMP JUMPDEST JUMPDEST SUB PUSH2 0x3DC JUMPI PUSH0 PUSH1 0x1 PUSH0 DUP5 PUSH20 0xFFFFFFFFFFFFFFFFFFFFFFFFFFFFFFFFFFFFFFFF AND PUSH20 0xFFFFFFFFFFFFFFFFFFFFFFFFFFFFFFFFFFFFFFFF AND DUP2 MSTORE PUSH1 0x20 ADD SWAP1 DUP2 MSTORE PUSH1 0x20 ADD PUSH0 KECCAK256 PUSH1 0x2 ADD PUSH1 0x1 PUSH2 0x100 EXP DUP2 SLOAD DUP2 PUSH1 0xFF MUL NOT AND SWAP1 DUP4 ISZERO ISZERO MUL OR SWAP1 SSTORE POP PUSH2 0x522 JUMP JUMPDEST PUSH1 0x2 PUSH1 0x4 DUP2 GT ISZERO PUSH2 0x3F0 JUMPI PUSH2 0x3EF PUSH2 0x22E7 JUMP JUMPDEST JUMPDEST DUP2 PUSH1 0x4 DUP2 GT ISZERO PUSH2 0x403 JUMPI PUSH2 0x402 PUSH2 0x22E7 JUMP JUMPDEST JUMPDEST SUB PUSH2 0x465 JUMPI PUSH0 PUSH1 0x2 PUSH0 DUP5 PUSH20 0xFFFFFFFFFFFFFFFFFFFFFFFFFFFFFFFFFFFFFFFF AND PUSH20 0xFFFFFFFFFFFFFFFFFFFFFFFFFFFFFFFFFFFFFFFF AND DUP2 MSTORE PUSH1 0x20 ADD SWAP1 DUP2 MSTORE PUSH1 0x20 ADD PUSH0 KECCAK256 PUSH1 0x2 ADD PUSH1 0x1 PUSH2 0x100 EXP DUP2 SLOAD DUP2 PUSH1 0xFF MUL NOT AND SWAP1 DUP4 ISZERO ISZERO MUL OR SWAP1 SSTORE POP PUSH2 0x521 JUMP JUMPDEST PUSH1 0x3 PUSH1 0x4 DUP2 GT ISZERO PUSH2 0x479 JUMPI PUSH2 0x478 PUSH2 0x22E7 JUMP JUMPDEST JUMPDEST DUP2 PUSH1 0x4 DUP2 GT ISZERO PUSH2 0x48C JUMPI PUSH2 0x48B PUSH2 0x22E7 JUMP JUMPDEST JUMPDEST SUB PUSH2 0x4EE JUMPI PUSH0 PUSH1 0x3 PUSH0 DUP5 PUSH20 0xFFFFFFFFFFFFFFFFFFFFFFFFFFFFFFFFFFFFFFFF AND PUSH20 0xFFFFFFFFFFFFFFFFFFFFFFFFFFFFFFFFFFFFFFFF AND DUP2 MSTORE PUSH1 0x20 ADD SWAP1 DUP2 MSTORE PUSH1 0x20 ADD PUSH0 KECCAK256 PUSH1 0x2 ADD PUSH1 0x1 PUSH2 0x100 EXP DUP2 SLOAD DUP2 PUSH1 0xFF MUL NOT AND SWAP1 DUP4 ISZERO ISZERO MUL OR SWAP1 SSTORE POP PUSH2 0x520 JUMP JUMPDEST PUSH1 0x40 MLOAD PUSH32 0x817A01F800000000000000000000000000000000000000000000000000000000 DUP2 MSTORE PUSH1 0x4 ADD PUSH1 0x40 MLOAD DUP1 SWAP2 SUB SWAP1 REVERT JUMPDEST JUMPDEST JUMPDEST POP POP JUMP JUMPDEST PUSH0 PUSH1 0x1 PUSH1 0x4 DUP2 GT ISZERO PUSH2 0x53B JUMPI PUSH2 0x53A PUSH2 0x22E7 JUMP JUMPDEST JUMPDEST DUP3 PUSH1 0x4 DUP2 GT ISZERO PUSH2 0x54E JUMPI PUSH2 0x54D PUSH2 0x22E7 JUMP JUMPDEST JUMPDEST SUB PUSH2 0x5A8 JUMPI PUSH1 0x1 PUSH0 DUP5 PUSH20 0xFFFFFFFFFFFFFFFFFFFFFFFFFFFFFFFFFFFFFFFF AND PUSH20 0xFFFFFFFFFFFFFFFFFFFFFFFFFFFFFFFFFFFFFFFF AND DUP2 MSTORE PUSH1 0x20 ADD SWAP1 DUP2 MSTORE PUSH1 0x20 ADD PUSH0 KECCAK256 PUSH1 0x2 ADD PUSH1 0x1 SWAP1 SLOAD SWAP1 PUSH2 0x100 EXP SWAP1 DIV PUSH1 0xFF AND SWAP1 POP PUSH2 0x710 JUMP JUMPDEST PUSH1 0x2 PUSH1 0x4 DUP2 GT ISZERO PUSH2 0x5BC JUMPI PUSH2 0x5BB PUSH2 0x22E7 JUMP JUMPDEST JUMPDEST DUP3 PUSH1 0x4 DUP2 GT ISZERO PUSH2 0x5CF JUMPI PUSH2 0x5CE PUSH2 0x22E7 JUMP JUMPDEST JUMPDEST SUB PUSH2 0x629 JUMPI PUSH1 0x2 PUSH0 DUP5 PUSH20 0xFFFFFFFFFFFFFFFFFFFFFFFFFFFFFFFFFFFFFFFF AND PUSH20 0xFFFFFFFFFFFFFFFFFFFFFFFFFFFFFFFFFFFFFFFF AND DUP2 MSTORE PUSH1 0x20 ADD SWAP1 DUP2 MSTORE PUSH1 0x20 ADD PUSH0 KECCAK256 PUSH1 0x2 ADD PUSH1 0x1 SWAP1 SLOAD SWAP1 PUSH2 0x100 EXP SWAP1 DIV PUSH1 0xFF AND SWAP1 POP PUSH2 0x710 JUMP JUMPDEST PUSH1 0x3 PUSH1 0x4 DUP2 GT ISZERO PUSH2 0x63D JUMPI PUSH2 0x63C PUSH2 0x22E7 JUMP JUMPDEST JUMPDEST DUP3 PUSH1 0x4 DUP2 GT ISZERO PUSH2 0x650 JUMPI PUSH2 0x64F PUSH2 0x22E7 JUMP JUMPDEST JUMPDEST SUB PUSH2 0x6AA JUMPI PUSH1 0x3 PUSH0 DUP5 PUSH20 0xFFFFFFFFFFFFFFFFFFFFFFFFFFFFFFFFFFFFFFFF AND PUSH20 0xFFFFFFFFFFFFFFFFFFFFFFFFFFFFFFFFFFFFFFFF AND DUP2 MSTORE PUSH1 0x20 ADD SWAP1 DUP2 MSTORE PUSH1 0x20 ADD PUSH0 KECCAK256 PUSH1 0x2 ADD PUSH1 0x1 SWAP1 SLOAD SWAP1 PUSH2 0x100 EXP SWAP1 DIV PUSH1 0xFF AND SWAP1 POP PUSH2 0x710 JUMP JUMPDEST PUSH0 PUSH1 0x4 DUP2 GT ISZERO PUSH2 0x6BD JUMPI PUSH2 0x6BC PUSH2 0x22E7 JUMP JUMPDEST JUMPDEST DUP3 PUSH1 0x4 DUP2 GT ISZERO PUSH2 0x6D0 JUMPI PUSH2 0x6CF PUSH2 0x22E7 JUMP JUMPDEST JUMPDEST SUB PUSH2 0x6DE JUMPI PUSH1 0x1 SWAP1 POP PUSH2 0x710 JUMP JUMPDEST PUSH1 0x40 MLOAD PUSH32 0x817A01F800000000000000000000000000000000000000000000000000000000 DUP2 MSTORE PUSH1 0x4 ADD PUSH1 0x40 MLOAD DUP1 SWAP2 SUB SWAP1 REVERT JUMPDEST SWAP3 SWAP2 POP POP JUMP JUMPDEST PUSH1 0x60 PUSH1 0x4 DUP1 SLOAD DUP1 PUSH1 0x20 MUL PUSH1 0x20 ADD PUSH1 0x40 MLOAD SWAP1 DUP2 ADD PUSH1 0x40 MSTORE DUP1 SWAP3 SWAP2 SWAP1 DUP2 DUP2 MSTORE PUSH1 0x20 ADD PUSH0 SWAP1 JUMPDEST DUP3 DUP3 LT ISZERO PUSH2 0x9C9 JUMPI DUP4 DUP3 SWAP1 PUSH0 MSTORE PUSH1 0x20 PUSH0 KECCAK256 SWAP1 PUSH1 0x9 MUL ADD PUSH1 0x40 MLOAD DUP1 PUSH2 0x120 ADD PUSH1 0x40 MSTORE SWAP1 DUP2 PUSH0 DUP3 ADD DUP1 SLOAD PUSH2 0x76A SWAP1 PUSH2 0x2E26 JUMP JUMPDEST DUP1 PUSH1 0x1F ADD PUSH1 0x20 DUP1 SWAP2 DIV MUL PUSH1 0x20 ADD PUSH1 0x40 MLOAD SWAP1 DUP2 ADD PUSH1 0x40 MSTORE DUP1 SWAP3 SWAP2 SWAP1 DUP2 DUP2 MSTORE PUSH1 0x20 ADD DUP3 DUP1 SLOAD PUSH2 0x796 SWAP1 PUSH2 0x2E26 JUMP JUMPDEST DUP1 ISZERO PUSH2 0x7E1 JUMPI DUP1 PUSH1 0x1F LT PUSH2 0x7B8 JUMPI PUSH2 0x100 DUP1 DUP4 SLOAD DIV MUL DUP4 MSTORE SWAP2 PUSH1 0x20 ADD SWAP2 PUSH2 0x7E1 JUMP JUMPDEST DUP3 ADD SWAP2 SWAP1 PUSH0 MSTORE PUSH1 0x20 PUSH0 KECCAK256 SWAP1 JUMPDEST DUP2 SLOAD DUP2 MSTORE SWAP1 PUSH1 0x1 ADD SWAP1 PUSH1 0x20 ADD DUP1 DUP4 GT PUSH2 0x7C4 JUMPI DUP3 SWAP1 SUB PUSH1 0x1F AND DUP3 ADD SWAP2 JUMPDEST POP POP POP POP POP DUP2 MSTORE PUSH1 0x20 ADD PUSH1 0x1 DUP3 ADD DUP1 SLOAD PUSH2 0x7FA SWAP1 PUSH2 0x2E26 JUMP JUMPDEST DUP1 PUSH1 0x1F ADD PUSH1 0x20 DUP1 SWAP2 DIV MUL PUSH1 0x20 ADD PUSH1 0x40 MLOAD SWAP1 DUP2 ADD PUSH1 0x40 MSTORE DUP1 SWAP3 SWAP2 SWAP1 DUP2 DUP2 MSTORE PUSH1 0x20 ADD DUP3 DUP1 SLOAD PUSH2 0x826 SWAP1 PUSH2 0x2E26 JUMP JUMPDEST DUP1 ISZERO PUSH2 0x871 JUMPI DUP1 PUSH1 0x1F LT PUSH2 0x848 JUMPI PUSH2 0x100 DUP1 DUP4 SLOAD DIV MUL DUP4 MSTORE SWAP2 PUSH1 0x20 ADD SWAP2 PUSH2 0x871 JUMP JUMPDEST DUP3 ADD SWAP2 SWAP1 PUSH0 MSTORE PUSH1 0x20 PUSH0 KECCAK256 SWAP1 JUMPDEST DUP2 SLOAD DUP2 MSTORE SWAP1 PUSH1 0x1 ADD SWAP1 PUSH1 0x20 ADD DUP1 DUP4 GT PUSH2 0x854 JUMPI DUP3 SWAP1 SUB PUSH1 0x1F AND DUP3 ADD SWAP2 JUMPDEST POP POP POP POP POP DUP2 MSTORE PUSH1 0x20 ADD PUSH1 0x2 DUP3 ADD SLOAD DUP2 MSTORE PUSH1 0x20 ADD PUSH1 0x3 DUP3 ADD SLOAD DUP2 MSTORE PUSH1 0x20 ADD PUSH1 0x4 DUP3 ADD SLOAD DUP2 MSTORE PUSH1 0x20 ADD PUSH1 0x5 DUP3 ADD DUP1 SLOAD DUP1 PUSH1 0x20 MUL PUSH1 0x20 ADD PUSH1 0x40 MLOAD SWAP1 DUP2 ADD PUSH1 0x40 MSTORE DUP1 SWAP3 SWAP2 SWAP1 DUP2 DUP2 MSTORE PUSH1 0x20 ADD PUSH0 SWAP1 JUMPDEST DUP3 DUP3 LT ISZERO PUSH2 0x964 JUMPI DUP4 DUP3 SWAP1 PUSH0 MSTORE PUSH1 0x20 PUSH0 KECCAK256 ADD DUP1 SLOAD PUSH2 0x8D9 SWAP1 PUSH2 0x2E26 JUMP JUMPDEST DUP1 PUSH1 0x1F ADD PUSH1 0x20 DUP1 SWAP2 DIV MUL PUSH1 0x20 ADD PUSH1 0x40 MLOAD SWAP1 DUP2 ADD PUSH1 0x40 MSTORE DUP1 SWAP3 SWAP2 SWAP1 DUP2 DUP2 MSTORE PUSH1 0x20 ADD DUP3 DUP1 SLOAD PUSH2 0x905 SWAP1 PUSH2 0x2E26 JUMP JUMPDEST DUP1 ISZERO PUSH2 0x950 JUMPI DUP1 PUSH1 0x1F LT PUSH2 0x927 JUMPI PUSH2 0x100 DUP1 DUP4 SLOAD DIV MUL DUP4 MSTORE SWAP2 PUSH1 0x20 ADD SWAP2 PUSH2 0x950 JUMP JUMPDEST DUP3 ADD SWAP2 SWAP1 PUSH0 MSTORE PUSH1 0x20 PUSH0 KECCAK256 SWAP1 JUMPDEST DUP2 SLOAD DUP2 MSTORE SWAP1 PUSH1 0x1 ADD SWAP1 PUSH1 0x20 ADD DUP1 DUP4 GT PUSH2 0x933 JUMPI DUP3 SWAP1 SUB PUSH1 0x1F AND DUP3 ADD SWAP2 JUMPDEST POP POP POP POP POP DUP2 MSTORE PUSH1 0x20 ADD SWAP1 PUSH1 0x1 ADD SWAP1 PUSH2 0x8BC JUMP JUMPDEST POP POP POP POP DUP2 MSTORE PUSH1 0x20 ADD PUSH1 0x6 DUP3 ADD SLOAD DUP2 MSTORE PUSH1 0x20 ADD PUSH1 0x7 DUP3 ADD SLOAD DUP2 MSTORE PUSH1 0x20 ADD PUSH1 0x8 DUP3 ADD PUSH0 SWAP1 SLOAD SWAP1 PUSH2 0x100 EXP SWAP1 DIV PUSH1 0xFF AND PUSH1 0x1 DUP2 GT ISZERO PUSH2 0x9A4 JUMPI PUSH2 0x9A3 PUSH2 0x22E7 JUMP JUMPDEST JUMPDEST PUSH1 0x1 DUP2 GT ISZERO PUSH2 0x9B6 JUMPI PUSH2 0x9B5 PUSH2 0x22E7 JUMP JUMPDEST JUMPDEST DUP2 MSTORE POP POP DUP2 MSTORE PUSH1 0x20 ADD SWAP1 PUSH1 0x1 ADD SWAP1 PUSH2 0x739 JUMP JUMPDEST POP POP POP POP SWAP1 POP SWAP1 JUMP JUMPDEST PUSH1 0x60 PUSH2 0x9DC PUSH2 0x112F JUMP JUMPDEST SWAP1 POP SWAP1 JUMP JUMPDEST PUSH0 PUSH20 0xFFFFFFFFFFFFFFFFFFFFFFFFFFFFFFFFFFFFFFFF AND CALLER PUSH20 0xFFFFFFFFFFFFFFFFFFFFFFFFFFFFFFFFFFFFFFFF AND SUB PUSH2 0xA4F JUMPI PUSH1 0x40 MLOAD PUSH32 0x8C379A000000000000000000000000000000000000000000000000000000000 DUP2 MSTORE PUSH1 0x4 ADD PUSH2 0xA46 SWAP1 PUSH2 0x2EB0 JUMP JUMPDEST PUSH1 0x40 MLOAD DUP1 SWAP2 SUB SWAP1 REVERT JUMPDEST PUSH0 PUSH20 0xFFFFFFFFFFFFFFFFFFFFFFFFFFFFFFFFFFFFFFFF AND PUSH1 0x1 PUSH0 CALLER PUSH20 0xFFFFFFFFFFFFFFFFFFFFFFFFFFFFFFFFFFFFFFFF AND PUSH20 0xFFFFFFFFFFFFFFFFFFFFFFFFFFFFFFFFFFFFFFFF AND DUP2 MSTORE PUSH1 0x20 ADD SWAP1 DUP2 MSTORE PUSH1 0x20 ADD PUSH0 KECCAK256 PUSH0 ADD PUSH0 SWAP1 SLOAD SWAP1 PUSH2 0x100 EXP SWAP1 DIV PUSH20 0xFFFFFFFFFFFFFFFFFFFFFFFFFFFFFFFFFFFFFFFF AND PUSH20 0xFFFFFFFFFFFFFFFFFFFFFFFFFFFFFFFFFFFFFFFF AND SUB PUSH2 0xB1B JUMPI PUSH1 0x40 MLOAD PUSH32 0x8C379A000000000000000000000000000000000000000000000000000000000 DUP2 MSTORE PUSH1 0x4 ADD PUSH2 0xB12 SWAP1 PUSH2 0x2F18 JUMP JUMPDEST PUSH1 0x40 MLOAD DUP1 SWAP2 SUB SWAP1 REVERT JUMPDEST PUSH1 0x1 PUSH1 0x4 DUP2 GT ISZERO PUSH2 0xB2F JUMPI PUSH2 0xB2E PUSH2 0x22E7 JUMP JUMPDEST JUMPDEST PUSH1 0x1 PUSH0 CALLER PUSH20 0xFFFFFFFFFFFFFFFFFFFFFFFFFFFFFFFFFFFFFFFF AND PUSH20 0xFFFFFFFFFFFFFFFFFFFFFFFFFFFFFFFFFFFFFFFF AND DUP2 MSTORE PUSH1 0x20 ADD SWAP1 DUP2 MSTORE PUSH1 0x20 ADD PUSH0 KECCAK256 PUSH1 0x2 ADD PUSH0 SWAP1 SLOAD SWAP1 PUSH2 0x100 EXP SWAP1 DIV PUSH1 0xFF AND PUSH1 0x4 DUP2 GT ISZERO PUSH2 0xB8E JUMPI PUSH2 0xB8D PUSH2 0x22E7 JUMP JUMPDEST JUMPDEST EQ PUSH2 0xBC5 JUMPI PUSH1 0x40 MLOAD PUSH32 0x6540B83300000000000000000000000000000000000000000000000000000000 DUP2 MSTORE PUSH1 0x4 ADD PUSH1 0x40 MLOAD DUP1 SWAP2 SUB SWAP1 REVERT JUMPDEST POP POP JUMP JUMPDEST PUSH0 DUP1 PUSH0 SWAP1 SLOAD SWAP1 PUSH2 0x100 EXP SWAP1 DIV PUSH20 0xFFFFFFFFFFFFFFFFFFFFFFFFFFFFFFFFFFFFFFFF AND SWAP1 POP SWAP1 JUMP JUMPDEST PUSH0 DUP1 SLOAD SWAP1 PUSH2 0x100 EXP SWAP1 DIV PUSH20 0xFFFFFFFFFFFFFFFFFFFFFFFFFFFFFFFFFFFFFFFF AND DUP2 JUMP JUMPDEST PUSH0 DUP1 SLOAD SWAP1 PUSH2 0x100 EXP SWAP1 DIV PUSH20 0xFFFFFFFFFFFFFFFFFFFFFFFFFFFFFFFFFFFFFFFF AND PUSH20 0xFFFFFFFFFFFFFFFFFFFFFFFFFFFFFFFFFFFFFFFF AND CALLER PUSH20 0xFFFFFFFFFFFFFFFFFFFFFFFFFFFFFFFFFFFFFFFF AND EQ PUSH2 0xC97 JUMPI PUSH1 0x40 MLOAD PUSH32 0x30CD747100000000000000000000000000000000000000000000000000000000 DUP2 MSTORE PUSH1 0x4 ADD PUSH1 0x40 MLOAD DUP1 SWAP2 SUB SWAP1 REVERT JUMPDEST PUSH0 PUSH1 0x4 DUP2 GT ISZERO PUSH2 0xCAA JUMPI PUSH2 0xCA9 PUSH2 0x22E7 JUMP JUMPDEST JUMPDEST DUP2 PUSH1 0x4 DUP2 GT ISZERO PUSH2 0xCBD JUMPI PUSH2 0xCBC PUSH2 0x22E7 JUMP JUMPDEST JUMPDEST SUB PUSH2 0xCF4 JUMPI PUSH1 0x40 MLOAD PUSH32 0xDA55570300000000000000000000000000000000000000000000000000000000 DUP2 MSTORE PUSH1 0x4 ADD PUSH1 0x40 MLOAD DUP1 SWAP2 SUB SWAP1 REVERT JUMPDEST PUSH0 PUSH20 0xFFFFFFFFFFFFFFFFFFFFFFFFFFFFFFFFFFFFFFFF AND DUP4 PUSH20 0xFFFFFFFFFFFFFFFFFFFFFFFFFFFFFFFFFFFFFFFF AND SUB PUSH2 0xD2B JUMPI PUSH0 DUP1 REVERT JUMPDEST PUSH0 PUSH1 0x40 MLOAD DUP1 PUSH1 0x80 ADD PUSH1 0x40 MSTORE DUP1 DUP6 PUSH20 0xFFFFFFFFFFFFFFFFFFFFFFFFFFFFFFFFFFFFFFFF AND DUP2 MSTORE PUSH1 0x20 ADD DUP5 DUP2 MSTORE PUSH1 0x20 ADD DUP4 PUSH1 0x4 DUP2 GT ISZERO PUSH2 0xD6C JUMPI PUSH2 0xD6B PUSH2 0x22E7 JUMP JUMPDEST JUMPDEST DUP2 MSTORE PUSH1 0x20 ADD PUSH1 0x1 ISZERO ISZERO DUP2 MSTORE POP SWAP1 POP PUSH1 0x1 PUSH1 0x4 DUP2 GT ISZERO PUSH2 0xD8E JUMPI PUSH2 0xD8D PUSH2 0x22E7 JUMP JUMPDEST JUMPDEST DUP3 PUSH1 0x4 DUP2 GT ISZERO PUSH2 0xDA1 JUMPI PUSH2 0xDA0 PUSH2 0x22E7 JUMP JUMPDEST JUMPDEST SUB PUSH2 0xE95 JUMPI DUP1 PUSH1 0x1 PUSH0 DUP7 PUSH20 0xFFFFFFFFFFFFFFFFFFFFFFFFFFFFFFFFFFFFFFFF AND PUSH20 0xFFFFFFFFFFFFFFFFFFFFFFFFFFFFFFFFFFFFFFFF AND DUP2 MSTORE PUSH1 0x20 ADD SWAP1 DUP2 MSTORE PUSH1 0x20 ADD PUSH0 KECCAK256 PUSH0 DUP3 ADD MLOAD DUP2 PUSH0 ADD PUSH0 PUSH2 0x100 EXP DUP2 SLOAD DUP2 PUSH20 0xFFFFFFFFFFFFFFFFFFFFFFFFFFFFFFFFFFFFFFFF MUL NOT AND SWAP1 DUP4 PUSH20 0xFFFFFFFFFFFFFFFFFFFFFFFFFFFFFFFFFFFFFFFF AND MUL OR SWAP1 SSTORE POP PUSH1 0x20 DUP3 ADD MLOAD DUP2 PUSH1 0x1 ADD SWAP1 DUP2 PUSH2 0xE3D SWAP2 SWAP1 PUSH2 0x30D3 JUMP JUMPDEST POP PUSH1 0x40 DUP3 ADD MLOAD DUP2 PUSH1 0x2 ADD PUSH0 PUSH2 0x100 EXP DUP2 SLOAD DUP2 PUSH1 0xFF MUL NOT AND SWAP1 DUP4 PUSH1 0x4 DUP2 GT ISZERO PUSH2 0xE68 JUMPI PUSH2 0xE67 PUSH2 0x22E7 JUMP JUMPDEST JUMPDEST MUL OR SWAP1 SSTORE POP PUSH1 0x60 DUP3 ADD MLOAD DUP2 PUSH1 0x2 ADD PUSH1 0x1 PUSH2 0x100 EXP DUP2 SLOAD DUP2 PUSH1 0xFF MUL NOT AND SWAP1 DUP4 ISZERO ISZERO MUL OR SWAP1 SSTORE POP SWAP1 POP POP PUSH2 0x10C9 JUMP JUMPDEST PUSH1 0x2 PUSH1 0x4 DUP2 GT ISZERO PUSH2 0xEA9 JUMPI PUSH2 0xEA8 PUSH2 0x22E7 JUMP JUMPDEST JUMPDEST DUP3 PUSH1 0x4 DUP2 GT ISZERO PUSH2 0xEBC JUMPI PUSH2 0xEBB PUSH2 0x22E7 JUMP JUMPDEST JUMPDEST SUB PUSH2 0xFB0 JUMPI DUP1 PUSH1 0x2 PUSH0 DUP7 PUSH20 0xFFFFFFFFFFFFFFFFFFFFFFFFFFFFFFFFFFFFFFFF AND PUSH20 0xFFFFFFFFFFFFFFFFFFFFFFFFFFFFFFFFFFFFFFFF AND DUP2 MSTORE PUSH1 0x20 ADD SWAP1 DUP2 MSTORE PUSH1 0x20 ADD PUSH0 KECCAK256 PUSH0 DUP3 ADD MLOAD DUP2 PUSH0 ADD PUSH0 PUSH2 0x100 EXP DUP2 SLOAD DUP2 PUSH20 0xFFFFFFFFFFFFFFFFFFFFFFFFFFFFFFFFFFFFFFFF MUL NOT AND SWAP1 DUP4 PUSH20 0xFFFFFFFFFFFFFFFFFFFFFFFFFFFFFFFFFFFFFFFF AND MUL OR SWAP1 SSTORE POP PUSH1 0x20 DUP3 ADD MLOAD DUP2 PUSH1 0x1 ADD SWAP1 DUP2 PUSH2 0xF58 SWAP2 SWAP1 PUSH2 0x30D3 JUMP JUMPDEST POP PUSH1 0x40 DUP3 ADD MLOAD DUP2 PUSH1 0x2 ADD PUSH0 PUSH2 0x100 EXP DUP2 SLOAD DUP2 PUSH1 0xFF MUL NOT AND SWAP1 DUP4 PUSH1 0x4 DUP2 GT ISZERO PUSH2 0xF83 JUMPI PUSH2 0xF82 PUSH2 0x22E7 JUMP JUMPDEST JUMPDEST MUL OR SWAP1 SSTORE POP PUSH1 0x60 DUP3 ADD MLOAD DUP2 PUSH1 0x2 ADD PUSH1 0x1 PUSH2 0x100 EXP DUP2 SLOAD DUP2 PUSH1 0xFF MUL NOT AND SWAP1 DUP4 ISZERO ISZERO MUL OR SWAP1 SSTORE POP SWAP1 POP POP PUSH2 0x10C8 JUMP JUMPDEST PUSH1 0x3 PUSH1 0x4 DUP2 GT ISZERO PUSH2 0xFC4 JUMPI PUSH2 0xFC3 PUSH2 0x22E7 JUMP JUMPDEST JUMPDEST DUP3 PUSH1 0x4 DUP2 GT ISZERO PUSH2 0xFD7 JUMPI PUSH2 0xFD6 PUSH2 0x22E7 JUMP JUMPDEST JUMPDEST SUB PUSH2 0x10C7 JUMPI DUP1 PUSH1 0x3 PUSH0 DUP7 PUSH20 0xFFFFFFFFFFFFFFFFFFFFFFFFFFFFFFFFFFFFFFFF AND PUSH20 0xFFFFFFFFFFFFFFFFFFFFFFFFFFFFFFFFFFFFFFFF AND DUP2 MSTORE PUSH1 0x20 ADD SWAP1 DUP2 MSTORE PUSH1 0x20 ADD PUSH0 KECCAK256 PUSH0 DUP3 ADD MLOAD DUP2 PUSH0 ADD PUSH0 PUSH2 0x100 EXP DUP2 SLOAD DUP2 PUSH20 0xFFFFFFFFFFFFFFFFFFFFFFFFFFFFFFFFFFFFFFFF MUL NOT AND SWAP1 DUP4 PUSH20 0xFFFFFFFFFFFFFFFFFFFFFFFFFFFFFFFFFFFFFFFF AND MUL OR SWAP1 SSTORE POP PUSH1 0x20 DUP3 ADD MLOAD DUP2 PUSH1 0x1 ADD SWAP1 DUP2 PUSH2 0x1073 SWAP2 SWAP1 PUSH2 0x30D3 JUMP JUMPDEST POP PUSH1 0x40 DUP3 ADD MLOAD DUP2 PUSH1 0x2 ADD PUSH0 PUSH2 0x100 EXP DUP2 SLOAD DUP2 PUSH1 0xFF MUL NOT AND SWAP1 DUP4 PUSH1 0x4 DUP2 GT ISZERO PUSH2 0x109E JUMPI PUSH2 0x109D PUSH2 0x22E7 JUMP JUMPDEST JUMPDEST MUL OR SWAP1 SSTORE POP PUSH1 0x60 DUP3 ADD MLOAD DUP2 PUSH1 0x2 ADD PUSH1 0x1 PUSH2 0x100 EXP DUP2 SLOAD DUP2 PUSH1 0xFF MUL NOT AND SWAP1 DUP4 ISZERO ISZERO MUL OR SWAP1 SSTORE POP SWAP1 POP POP JUMPDEST JUMPDEST JUMPDEST PUSH32 0xF6313D7F99E7F608341F82B433954D030C4F31A21D6585A87969683CBBFF880B DUP3 DUP6 PUSH1 0x40 MLOAD PUSH2 0x10FA SWAP3 SWAP2 SWAP1 PUSH2 0x31B1 JUMP JUMPDEST PUSH1 0x40 MLOAD DUP1 SWAP2 SUB SWAP1 LOG1 POP POP POP POP JUMP JUMPDEST POP POP POP JUMP JUMPDEST PUSH2 0x1115 PUSH2 0x1F53 JUMP JUMPDEST PUSH2 0x111D PUSH2 0x1FAB JUMP JUMPDEST PUSH2 0x1126 DUP4 PUSH2 0x1A83 JUMP JUMPDEST SWAP2 POP SWAP2 POP SWAP2 POP SWAP2 JUMP JUMPDEST PUSH1 0x60 PUSH0 PUSH1 0x6 PUSH0 CALLER PUSH20 0xFFFFFFFFFFFFFFFFFFFFFFFFFFFFFFFFFFFFFFFF AND PUSH20 0xFFFFFFFFFFFFFFFFFFFFFFFFFFFFFFFFFFFFFFFF AND DUP2 MSTORE PUSH1 0x20 ADD SWAP1 DUP2 MSTORE PUSH1 0x20 ADD PUSH0 KECCAK256 DUP1 SLOAD DUP1 PUSH1 0x20 MUL PUSH1 0x20 ADD PUSH1 0x40 MLOAD SWAP1 DUP2 ADD PUSH1 0x40 MSTORE DUP1 SWAP3 SWAP2 SWAP1 DUP2 DUP2 MSTORE PUSH1 0x20 ADD DUP3 DUP1 SLOAD DUP1 ISZERO PUSH2 0x11B7 JUMPI PUSH1 0x20 MUL DUP3 ADD SWAP2 SWAP1 PUSH0 MSTORE PUSH1 0x20 PUSH0 KECCAK256 SWAP1 JUMPDEST DUP2 SLOAD DUP2 MSTORE PUSH1 0x20 ADD SWAP1 PUSH1 0x1 ADD SWAP1 DUP1 DUP4 GT PUSH2 0x11A3 JUMPI JUMPDEST POP POP POP POP POP SWAP1 POP PUSH0 DUP2 MLOAD PUSH8 0xFFFFFFFFFFFFFFFF DUP2 GT ISZERO PUSH2 0x11DA JUMPI PUSH2 0x11D9 PUSH2 0x24E0 JUMP JUMPDEST JUMPDEST PUSH1 0x40 MLOAD SWAP1 DUP1 DUP3 MSTORE DUP1 PUSH1 0x20 MUL PUSH1 0x20 ADD DUP3 ADD PUSH1 0x40 MSTORE DUP1 ISZERO PUSH2 0x1213 JUMPI DUP2 PUSH1 0x20 ADD JUMPDEST PUSH2 0x1200 PUSH2 0x1F53 JUMP JUMPDEST DUP2 MSTORE PUSH1 0x20 ADD SWAP1 PUSH1 0x1 SWAP1 SUB SWAP1 DUP2 PUSH2 0x11F8 JUMPI SWAP1 POP JUMPDEST POP SWAP1 POP PUSH0 JUMPDEST DUP3 MLOAD DUP2 LT ISZERO PUSH2 0x14E2 JUMPI PUSH1 0x7 PUSH0 DUP5 DUP4 DUP2 MLOAD DUP2 LT PUSH2 0x1237 JUMPI PUSH2 0x1236 PUSH2 0x31D8 JUMP JUMPDEST JUMPDEST PUSH1 0x20 MUL PUSH1 0x20 ADD ADD MLOAD DUP2 MSTORE PUSH1 0x20 ADD SWAP1 DUP2 MSTORE PUSH1 0x20 ADD PUSH0 KECCAK256 PUSH1 0x40 MLOAD DUP1 PUSH2 0x120 ADD PUSH1 0x40 MSTORE SWAP1 DUP2 PUSH0 DUP3 ADD DUP1 SLOAD PUSH2 0x1267 SWAP1 PUSH2 0x2E26 JUMP JUMPDEST DUP1 PUSH1 0x1F ADD PUSH1 0x20 DUP1 SWAP2 DIV MUL PUSH1 0x20 ADD PUSH1 0x40 MLOAD SWAP1 DUP2 ADD PUSH1 0x40 MSTORE DUP1 SWAP3 SWAP2 SWAP1 DUP2 DUP2 MSTORE PUSH1 0x20 ADD DUP3 DUP1 SLOAD PUSH2 0x1293 SWAP1 PUSH2 0x2E26 JUMP JUMPDEST DUP1 ISZERO PUSH2 0x12DE JUMPI DUP1 PUSH1 0x1F LT PUSH2 0x12B5 JUMPI PUSH2 0x100 DUP1 DUP4 SLOAD DIV MUL DUP4 MSTORE SWAP2 PUSH1 0x20 ADD SWAP2 PUSH2 0x12DE JUMP JUMPDEST DUP3 ADD SWAP2 SWAP1 PUSH0 MSTORE PUSH1 0x20 PUSH0 KECCAK256 SWAP1 JUMPDEST DUP2 SLOAD DUP2 MSTORE SWAP1 PUSH1 0x1 ADD SWAP1 PUSH1 0x20 ADD DUP1 DUP4 GT PUSH2 0x12C1 JUMPI DUP3 SWAP1 SUB PUSH1 0x1F AND DUP3 ADD SWAP2 JUMPDEST POP POP POP POP POP DUP2 MSTORE PUSH1 0x20 ADD PUSH1 0x1 DUP3 ADD DUP1 SLOAD PUSH2 0x12F7 SWAP1 PUSH2 0x2E26 JUMP JUMPDEST DUP1 PUSH1 0x1F ADD PUSH1 0x20 DUP1 SWAP2 DIV MUL PUSH1 0x20 ADD PUSH1 0x40 MLOAD SWAP1 DUP2 ADD PUSH1 0x40 MSTORE DUP1 SWAP3 SWAP2 SWAP1 DUP2 DUP2 MSTORE PUSH1 0x20 ADD DUP3 DUP1 SLOAD PUSH2 0x1323 SWAP1 PUSH2 0x2E26 JUMP JUMPDEST DUP1 ISZERO PUSH2 0x136E JUMPI DUP1 PUSH1 0x1F LT PUSH2 0x1345 JUMPI PUSH2 0x100 DUP1 DUP4 SLOAD DIV MUL DUP4 MSTORE SWAP2 PUSH1 0x20 ADD SWAP2 PUSH2 0x136E JUMP JUMPDEST DUP3 ADD SWAP2 SWAP1 PUSH0 MSTORE PUSH1 0x20 PUSH0 KECCAK256 SWAP1 JUMPDEST DUP2 SLOAD DUP2 MSTORE SWAP1 PUSH1 0x1 ADD SWAP1 PUSH1 0x20 ADD DUP1 DUP4 GT PUSH2 0x1351 JUMPI DUP3 SWAP1 SUB PUSH1 0x1F AND DUP3 ADD SWAP2 JUMPDEST POP POP POP POP POP DUP2 MSTORE PUSH1 0x20 ADD PUSH1 0x2 DUP3 ADD SLOAD DUP2 MSTORE PUSH1 0x20 ADD PUSH1 0x3 DUP3 ADD SLOAD DUP2 MSTORE PUSH1 0x20 ADD PUSH1 0x4 DUP3 ADD SLOAD DUP2 MSTORE PUSH1 0x20 ADD PUSH1 0x5 DUP3 ADD DUP1 SLOAD DUP1 PUSH1 0x20 MUL PUSH1 0x20 ADD PUSH1 0x40 MLOAD SWAP1 DUP2 ADD PUSH1 0x40 MSTORE DUP1 SWAP3 SWAP2 SWAP1 DUP2 DUP2 MSTORE PUSH1 0x20 ADD PUSH0 SWAP1 JUMPDEST DUP3 DUP3 LT ISZERO PUSH2 0x1461 JUMPI DUP4 DUP3 SWAP1 PUSH0 MSTORE PUSH1 0x20 PUSH0 KECCAK256 ADD DUP1 SLOAD PUSH2 0x13D6 SWAP1 PUSH2 0x2E26 JUMP JUMPDEST DUP1 PUSH1 0x1F ADD PUSH1 0x20 DUP1 SWAP2 DIV MUL PUSH1 0x20 ADD PUSH1 0x40 MLOAD SWAP1 DUP2 ADD PUSH1 0x40 MSTORE DUP1 SWAP3 SWAP2 SWAP1 DUP2 DUP2 MSTORE PUSH1 0x20 ADD DUP3 DUP1 SLOAD PUSH2 0x1402 SWAP1 PUSH2 0x2E26 JUMP JUMPDEST DUP1 ISZERO PUSH2 0x144D JUMPI DUP1 PUSH1 0x1F LT PUSH2 0x1424 JUMPI PUSH2 0x100 DUP1 DUP4 SLOAD DIV MUL DUP4 MSTORE SWAP2 PUSH1 0x20 ADD SWAP2 PUSH2 0x144D JUMP JUMPDEST DUP3 ADD SWAP2 SWAP1 PUSH0 MSTORE PUSH1 0x20 PUSH0 KECCAK256 SWAP1 JUMPDEST DUP2 SLOAD DUP2 MSTORE SWAP1 PUSH1 0x1 ADD SWAP1 PUSH1 0x20 ADD DUP1 DUP4 GT PUSH2 0x1430 JUMPI DUP3 SWAP1 SUB PUSH1 0x1F AND DUP3 ADD SWAP2 JUMPDEST POP POP POP POP POP DUP2 MSTORE PUSH1 0x20 ADD SWAP1 PUSH1 0x1 ADD SWAP1 PUSH2 0x13B9 JUMP JUMPDEST POP POP POP POP DUP2 MSTORE PUSH1 0x20 ADD PUSH1 0x6 DUP3 ADD SLOAD DUP2 MSTORE PUSH1 0x20 ADD PUSH1 0x7 DUP3 ADD SLOAD DUP2 MSTORE PUSH1 0x20 ADD PUSH1 0x8 DUP3 ADD PUSH0 SWAP1 SLOAD SWAP1 PUSH2 0x100 EXP SWAP1 DIV PUSH1 0xFF AND PUSH1 0x1 DUP2 GT ISZERO PUSH2 0x14A1 JUMPI PUSH2 0x14A0 PUSH2 0x22E7 JUMP JUMPDEST JUMPDEST PUSH1 0x1 DUP2 GT ISZERO PUSH2 0x14B3 JUMPI PUSH2 0x14B2 PUSH2 0x22E7 JUMP JUMPDEST JUMPDEST DUP2 MSTORE POP POP DUP3 DUP3 DUP2 MLOAD DUP2 LT PUSH2 0x14CA JUMPI PUSH2 0x14C9 PUSH2 0x31D8 JUMP JUMPDEST JUMPDEST PUSH1 0x20 MUL PUSH1 0x20 ADD ADD DUP2 SWAP1 MSTORE POP DUP1 DUP1 PUSH1 0x1 ADD SWAP2 POP POP PUSH2 0x1218 JUMP JUMPDEST POP DUP1 SWAP3 POP POP POP SWAP1 JUMP JUMPDEST PUSH2 0x14F3 PUSH2 0x1FE5 JUMP JUMPDEST PUSH1 0x1 PUSH1 0x4 DUP2 GT ISZERO PUSH2 0x1507 JUMPI PUSH2 0x1506 PUSH2 0x22E7 JUMP JUMPDEST JUMPDEST DUP3 PUSH1 0x4 DUP2 GT ISZERO PUSH2 0x151A JUMPI PUSH2 0x1519 PUSH2 0x22E7 JUMP JUMPDEST JUMPDEST SUB PUSH2 0x16A7 JUMPI PUSH1 0x1 PUSH0 DUP5 PUSH20 0xFFFFFFFFFFFFFFFFFFFFFFFFFFFFFFFFFFFFFFFF AND PUSH20 0xFFFFFFFFFFFFFFFFFFFFFFFFFFFFFFFFFFFFFFFF AND DUP2 MSTORE PUSH1 0x20 ADD SWAP1 DUP2 MSTORE PUSH1 0x20 ADD PUSH0 KECCAK256 PUSH1 0x40 MLOAD DUP1 PUSH1 0x80 ADD PUSH1 0x40 MSTORE SWAP1 DUP2 PUSH0 DUP3 ADD PUSH0 SWAP1 SLOAD SWAP1 PUSH2 0x100 EXP SWAP1 DIV PUSH20 0xFFFFFFFFFFFFFFFFFFFFFFFFFFFFFFFFFFFFFFFF AND PUSH20 0xFFFFFFFFFFFFFFFFFFFFFFFFFFFFFFFFFFFFFFFF AND PUSH20 0xFFFFFFFFFFFFFFFFFFFFFFFFFFFFFFFFFFFFFFFF AND DUP2 MSTORE PUSH1 0x20 ADD PUSH1 0x1 DUP3 ADD DUP1 SLOAD PUSH2 0x15CB SWAP1 PUSH2 0x2E26 JUMP JUMPDEST DUP1 PUSH1 0x1F ADD PUSH1 0x20 DUP1 SWAP2 DIV MUL PUSH1 0x20 ADD PUSH1 0x40 MLOAD SWAP1 DUP2 ADD PUSH1 0x40 MSTORE DUP1 SWAP3 SWAP2 SWAP1 DUP2 DUP2 MSTORE PUSH1 0x20 ADD DUP3 DUP1 SLOAD PUSH2 0x15F7 SWAP1 PUSH2 0x2E26 JUMP JUMPDEST DUP1 ISZERO PUSH2 0x1642 JUMPI DUP1 PUSH1 0x1F LT PUSH2 0x1619 JUMPI PUSH2 0x100 DUP1 DUP4 SLOAD DIV MUL DUP4 MSTORE SWAP2 PUSH1 0x20 ADD SWAP2 PUSH2 0x1642 JUMP JUMPDEST DUP3 ADD SWAP2 SWAP1 PUSH0 MSTORE PUSH1 0x20 PUSH0 KECCAK256 SWAP1 JUMPDEST DUP2 SLOAD DUP2 MSTORE SWAP1 PUSH1 0x1 ADD SWAP1 PUSH1 0x20 ADD DUP1 DUP4 GT PUSH2 0x1625 JUMPI DUP3 SWAP1 SUB PUSH1 0x1F AND DUP3 ADD SWAP2 JUMPDEST POP POP POP POP POP DUP2 MSTORE PUSH1 0x20 ADD PUSH1 0x2 DUP3 ADD PUSH0 SWAP1 SLOAD SWAP1 PUSH2 0x100 EXP SWAP1 DIV PUSH1 0xFF AND PUSH1 0x4 DUP2 GT ISZERO PUSH2 0x166F JUMPI PUSH2 0x166E PUSH2 0x22E7 JUMP JUMPDEST JUMPDEST PUSH1 0x4 DUP2 GT ISZERO PUSH2 0x1681 JUMPI PUSH2 0x1680 PUSH2 0x22E7 JUMP JUMPDEST JUMPDEST DUP2 MSTORE PUSH1 0x20 ADD PUSH1 0x2 DUP3 ADD PUSH1 0x1 SWAP1 SLOAD SWAP1 PUSH2 0x100 EXP SWAP1 DIV PUSH1 0xFF AND ISZERO ISZERO ISZERO ISZERO DUP2 MSTORE POP POP SWAP1 POP PUSH2 0x1A41 JUMP JUMPDEST PUSH1 0x2 PUSH1 0x4 DUP2 GT ISZERO PUSH2 0x16BB JUMPI PUSH2 0x16BA PUSH2 0x22E7 JUMP JUMPDEST JUMPDEST DUP3 PUSH1 0x4 DUP2 GT ISZERO PUSH2 0x16CE JUMPI PUSH2 0x16CD PUSH2 0x22E7 JUMP JUMPDEST JUMPDEST SUB PUSH2 0x185B JUMPI PUSH1 0x2 PUSH0 DUP5 PUSH20 0xFFFFFFFFFFFFFFFFFFFFFFFFFFFFFFFFFFFFFFFF AND PUSH20 0xFFFFFFFFFFFFFFFFFFFFFFFFFFFFFFFFFFFFFFFF AND DUP2 MSTORE PUSH1 0x20 ADD SWAP1 DUP2 MSTORE PUSH1 0x20 ADD PUSH0 KECCAK256 PUSH1 0x40 MLOAD DUP1 PUSH1 0x80 ADD PUSH1 0x40 MSTORE SWAP1 DUP2 PUSH0 DUP3 ADD PUSH0 SWAP1 SLOAD SWAP1 PUSH2 0x100 EXP SWAP1 DIV PUSH20 0xFFFFFFFFFFFFFFFFFFFFFFFFFFFFFFFFFFFFFFFF AND PUSH20 0xFFFFFFFFFFFFFFFFFFFFFFFFFFFFFFFFFFFFFFFF AND PUSH20 0xFFFFFFFFFFFFFFFFFFFFFFFFFFFFFFFFFFFFFFFF AND DUP2 MSTORE PUSH1 0x20 ADD PUSH1 0x1 DUP3 ADD DUP1 SLOAD PUSH2 0x177F SWAP1 PUSH2 0x2E26 JUMP JUMPDEST DUP1 PUSH1 0x1F ADD PUSH1 0x20 DUP1 SWAP2 DIV MUL PUSH1 0x20 ADD PUSH1 0x40 MLOAD SWAP1 DUP2 ADD PUSH1 0x40 MSTORE DUP1 SWAP3 SWAP2 SWAP1 DUP2 DUP2 MSTORE PUSH1 0x20 ADD DUP3 DUP1 SLOAD PUSH2 0x17AB SWAP1 PUSH2 0x2E26 JUMP JUMPDEST DUP1 ISZERO PUSH2 0x17F6 JUMPI DUP1 PUSH1 0x1F LT PUSH2 0x17CD JUMPI PUSH2 0x100 DUP1 DUP4 SLOAD DIV MUL DUP4 MSTORE SWAP2 PUSH1 0x20 ADD SWAP2 PUSH2 0x17F6 JUMP JUMPDEST DUP3 ADD SWAP2 SWAP1 PUSH0 MSTORE PUSH1 0x20 PUSH0 KECCAK256 SWAP1 JUMPDEST DUP2 SLOAD DUP2 MSTORE SWAP1 PUSH1 0x1 ADD SWAP1 PUSH1 0x20 ADD DUP1 DUP4 GT PUSH2 0x17D9 JUMPI DUP3 SWAP1 SUB PUSH1 0x1F AND DUP3 ADD SWAP2 JUMPDEST POP POP POP POP POP DUP2 MSTORE PUSH1 0x20 ADD PUSH1 0x2 DUP3 ADD PUSH0 SWAP1 SLOAD SWAP1 PUSH2 0x100 EXP SWAP1 DIV PUSH1 0xFF AND PUSH1 0x4 DUP2 GT ISZERO PUSH2 0x1823 JUMPI PUSH2 0x1822 PUSH2 0x22E7 JUMP JUMPDEST JUMPDEST PUSH1 0x4 DUP2 GT ISZERO PUSH2 0x1835 JUMPI PUSH2 0x1834 PUSH2 0x22E7 JUMP JUMPDEST JUMPDEST DUP2 MSTORE PUSH1 0x20 ADD PUSH1 0x2 DUP3 ADD PUSH1 0x1 SWAP1 SLOAD SWAP1 PUSH2 0x100 EXP SWAP1 DIV PUSH1 0xFF AND ISZERO ISZERO ISZERO ISZERO DUP2 MSTORE POP POP SWAP1 POP PUSH2 0x1A41 JUMP JUMPDEST PUSH1 0x3 PUSH1 0x4 DUP2 GT ISZERO PUSH2 0x186F JUMPI PUSH2 0x186E PUSH2 0x22E7 JUMP JUMPDEST JUMPDEST DUP3 PUSH1 0x4 DUP2 GT ISZERO PUSH2 0x1882 JUMPI PUSH2 0x1881 PUSH2 0x22E7 JUMP JUMPDEST JUMPDEST SUB PUSH2 0x1A0F JUMPI PUSH1 0x3 PUSH0 DUP5 PUSH20 0xFFFFFFFFFFFFFFFFFFFFFFFFFFFFFFFFFFFFFFFF AND PUSH20 0xFFFFFFFFFFFFFFFFFFFFFFFFFFFFFFFFFFFFFFFF AND DUP2 MSTORE PUSH1 0x20 ADD SWAP1 DUP2 MSTORE PUSH1 0x20 ADD PUSH0 KECCAK256 PUSH1 0x40 MLOAD DUP1 PUSH1 0x80 ADD PUSH1 0x40 MSTORE SWAP1 DUP2 PUSH0 DUP3 ADD PUSH0 SWAP1 SLOAD SWAP1 PUSH2 0x100 EXP SWAP1 DIV PUSH20 0xFFFFFFFFFFFFFFFFFFFFFFFFFFFFFFFFFFFFFFFF AND PUSH20 0xFFFFFFFFFFFFFFFFFFFFFFFFFFFFFFFFFFFFFFFF AND PUSH20 0xFFFFFFFFFFFFFFFFFFFFFFFFFFFFFFFFFFFFFFFF AND DUP2 MSTORE PUSH1 0x20 ADD PUSH1 0x1 DUP3 ADD DUP1 SLOAD PUSH2 0x1933 SWAP1 PUSH2 0x2E26 JUMP JUMPDEST DUP1 PUSH1 0x1F ADD PUSH1 0x20 DUP1 SWAP2 DIV MUL PUSH1 0x20 ADD PUSH1 0x40 MLOAD SWAP1 DUP2 ADD PUSH1 0x40 MSTORE DUP1 SWAP3 SWAP2 SWAP1 DUP2 DUP2 MSTORE PUSH1 0x20 ADD DUP3 DUP1 SLOAD PUSH2 0x195F SWAP1 PUSH2 0x2E26 JUMP JUMPDEST DUP1 ISZERO PUSH2 0x19AA JUMPI DUP1 PUSH1 0x1F LT PUSH2 0x1981 JUMPI PUSH2 0x100 DUP1 DUP4 SLOAD DIV MUL DUP4 MSTORE SWAP2 PUSH1 0x20 ADD SWAP2 PUSH2 0x19AA JUMP JUMPDEST DUP3 ADD SWAP2 SWAP1 PUSH0 MSTORE PUSH1 0x20 PUSH0 KECCAK256 SWAP1 JUMPDEST DUP2 SLOAD DUP2 MSTORE SWAP1 PUSH1 0x1 ADD SWAP1 PUSH1 0x20 ADD DUP1 DUP4 GT PUSH2 0x198D JUMPI DUP3 SWAP1 SUB PUSH1 0x1F AND DUP3 ADD SWAP2 JUMPDEST POP POP POP POP POP DUP2 MSTORE PUSH1 0x20 ADD PUSH1 0x2 DUP3 ADD PUSH0 SWAP1 SLOAD SWAP1 PUSH2 0x100 EXP SWAP1 DIV PUSH1 0xFF AND PUSH1 0x4 DUP2 GT ISZERO PUSH2 0x19D7 JUMPI PUSH2 0x19D6 PUSH2 0x22E7 JUMP JUMPDEST JUMPDEST PUSH1 0x4 DUP2 GT ISZERO PUSH2 0x19E9 JUMPI PUSH2 0x19E8 PUSH2 0x22E7 JUMP JUMPDEST JUMPDEST DUP2 MSTORE PUSH1 0x20 ADD PUSH1 0x2 DUP3 ADD PUSH1 0x1 SWAP1 SLOAD SWAP1 PUSH2 0x100 EXP SWAP1 DIV PUSH1 0xFF AND ISZERO ISZERO ISZERO ISZERO DUP2 MSTORE POP POP SWAP1 POP PUSH2 0x1A41 JUMP JUMPDEST PUSH1 0x40 MLOAD PUSH32 0x817A01F800000000000000000000000000000000000000000000000000000000 DUP2 MSTORE PUSH1 0x4 ADD PUSH1 0x40 MLOAD DUP1 SWAP2 SUB SWAP1 REVERT JUMPDEST SWAP3 SWAP2 POP POP JUMP JUMPDEST POP JUMP JUMPDEST PUSH2 0x1A52 PUSH2 0x1FE5 JUMP JUMPDEST PUSH2 0x1A5C DUP4 DUP4 PUSH2 0x14EB JUMP JUMPDEST SWAP1 POP SWAP3 SWAP2 POP POP JUMP JUMPDEST PUSH0 PUSH11 0x636F6E736F6C652E6C6F67 SWAP1 POP PUSH0 DUP1 DUP4 MLOAD PUSH1 0x20 DUP6 ADD DUP5 GAS STATICCALL POP POP POP JUMP JUMPDEST PUSH2 0x1A8B PUSH2 0x1F53 JUMP JUMPDEST PUSH2 0x1A93 PUSH2 0x1FAB JUMP JUMPDEST PUSH1 0x7 PUSH0 DUP5 DUP2 MSTORE PUSH1 0x20 ADD SWAP1 DUP2 MSTORE PUSH1 0x20 ADD PUSH0 KECCAK256 PUSH1 0x5 PUSH0 DUP6 DUP2 MSTORE PUSH1 0x20 ADD SWAP1 DUP2 MSTORE PUSH1 0x20 ADD PUSH0 KECCAK256 DUP2 PUSH1 0x40 MLOAD DUP1 PUSH2 0x120 ADD PUSH1 0x40 MSTORE SWAP1 DUP2 PUSH0 DUP3 ADD DUP1 SLOAD PUSH2 0x1AD1 SWAP1 PUSH2 0x2E26 JUMP JUMPDEST DUP1 PUSH1 0x1F ADD PUSH1 0x20 DUP1 SWAP2 DIV MUL PUSH1 0x20 ADD PUSH1 0x40 MLOAD SWAP1 DUP2 ADD PUSH1 0x40 MSTORE DUP1 SWAP3 SWAP2 SWAP1 DUP2 DUP2 MSTORE PUSH1 0x20 ADD DUP3 DUP1 SLOAD PUSH2 0x1AFD SWAP1 PUSH2 0x2E26 JUMP JUMPDEST DUP1 ISZERO PUSH2 0x1B48 JUMPI DUP1 PUSH1 0x1F LT PUSH2 0x1B1F JUMPI PUSH2 0x100 DUP1 DUP4 SLOAD DIV MUL DUP4 MSTORE SWAP2 PUSH1 0x20 ADD SWAP2 PUSH2 0x1B48 JUMP JUMPDEST DUP3 ADD SWAP2 SWAP1 PUSH0 MSTORE PUSH1 0x20 PUSH0 KECCAK256 SWAP1 JUMPDEST DUP2 SLOAD DUP2 MSTORE SWAP1 PUSH1 0x1 ADD SWAP1 PUSH1 0x20 ADD DUP1 DUP4 GT PUSH2 0x1B2B JUMPI DUP3 SWAP1 SUB PUSH1 0x1F AND DUP3 ADD SWAP2 JUMPDEST POP POP POP POP POP DUP2 MSTORE PUSH1 0x20 ADD PUSH1 0x1 DUP3 ADD DUP1 SLOAD PUSH2 0x1B61 SWAP1 PUSH2 0x2E26 JUMP JUMPDEST DUP1 PUSH1 0x1F ADD PUSH1 0x20 DUP1 SWAP2 DIV MUL PUSH1 0x20 ADD PUSH1 0x40 MLOAD SWAP1 DUP2 ADD PUSH1 0x40 MSTORE DUP1 SWAP3 SWAP2 SWAP1 DUP2 DUP2 MSTORE PUSH1 0x20 ADD DUP3 DUP1 SLOAD PUSH2 0x1B8D SWAP1 PUSH2 0x2E26 JUMP JUMPDEST DUP1 ISZERO PUSH2 0x1BD8 JUMPI DUP1 PUSH1 0x1F LT PUSH2 0x1BAF JUMPI PUSH2 0x100 DUP1 DUP4 SLOAD DIV MUL DUP4 MSTORE SWAP2 PUSH1 0x20 ADD SWAP2 PUSH2 0x1BD8 JUMP JUMPDEST DUP3 ADD SWAP2 SWAP1 PUSH0 MSTORE PUSH1 0x20 PUSH0 KECCAK256 SWAP1 JUMPDEST DUP2 SLOAD DUP2 MSTORE SWAP1 PUSH1 0x1 ADD SWAP1 PUSH1 0x20 ADD DUP1 DUP4 GT PUSH2 0x1BBB JUMPI DUP3 SWAP1 SUB PUSH1 0x1F AND DUP3 ADD SWAP2 JUMPDEST POP POP POP POP POP DUP2 MSTORE PUSH1 0x20 ADD PUSH1 0x2 DUP3 ADD SLOAD DUP2 MSTORE PUSH1 0x20 ADD PUSH1 0x3 DUP3 ADD SLOAD DUP2 MSTORE PUSH1 0x20 ADD PUSH1 0x4 DUP3 ADD SLOAD DUP2 MSTORE PUSH1 0x20 ADD PUSH1 0x5 DUP3 ADD DUP1 SLOAD DUP1 PUSH1 0x20 MUL PUSH1 0x20 ADD PUSH1 0x40 MLOAD SWAP1 DUP2 ADD PUSH1 0x40 MSTORE DUP1 SWAP3 SWAP2 SWAP1 DUP2 DUP2 MSTORE PUSH1 0x20 ADD PUSH0 SWAP1 JUMPDEST DUP3 DUP3 LT ISZERO PUSH2 0x1CCB JUMPI DUP4 DUP3 SWAP1 PUSH0 MSTORE PUSH1 0x20 PUSH0 KECCAK256 ADD DUP1 SLOAD PUSH2 0x1C40 SWAP1 PUSH2 0x2E26 JUMP JUMPDEST DUP1 PUSH1 0x1F ADD PUSH1 0x20 DUP1 SWAP2 DIV MUL PUSH1 0x20 ADD PUSH1 0x40 MLOAD SWAP1 DUP2 ADD PUSH1 0x40 MSTORE DUP1 SWAP3 SWAP2 SWAP1 DUP2 DUP2 MSTORE PUSH1 0x20 ADD DUP3 DUP1 SLOAD PUSH2 0x1C6C SWAP1 PUSH2 0x2E26 JUMP JUMPDEST DUP1 ISZERO PUSH2 0x1CB7 JUMPI DUP1 PUSH1 0x1F LT PUSH2 0x1C8E JUMPI PUSH2 0x100 DUP1 DUP4 SLOAD DIV MUL DUP4 MSTORE SWAP2 PUSH1 0x20 ADD SWAP2 PUSH2 0x1CB7 JUMP JUMPDEST DUP3 ADD SWAP2 SWAP1 PUSH0 MSTORE PUSH1 0x20 PUSH0 KECCAK256 SWAP1 JUMPDEST DUP2 SLOAD DUP2 MSTORE SWAP1 PUSH1 0x1 ADD SWAP1 PUSH1 0x20 ADD DUP1 DUP4 GT PUSH2 0x1C9A JUMPI DUP3 SWAP1 SUB PUSH1 0x1F AND DUP3 ADD SWAP2 JUMPDEST POP POP POP POP POP DUP2 MSTORE PUSH1 0x20 ADD SWAP1 PUSH1 0x1 ADD SWAP1 PUSH2 0x1C23 JUMP JUMPDEST POP POP POP POP DUP2 MSTORE PUSH1 0x20 ADD PUSH1 0x6 DUP3 ADD SLOAD DUP2 MSTORE PUSH1 0x20 ADD PUSH1 0x7 DUP3 ADD SLOAD DUP2 MSTORE PUSH1 0x20 ADD PUSH1 0x8 DUP3 ADD PUSH0 SWAP1 SLOAD SWAP1 PUSH2 0x100 EXP SWAP1 DIV PUSH1 0xFF AND PUSH1 0x1 DUP2 GT ISZERO PUSH2 0x1D0B JUMPI PUSH2 0x1D0A PUSH2 0x22E7 JUMP JUMPDEST JUMPDEST PUSH1 0x1 DUP2 GT ISZERO PUSH2 0x1D1D JUMPI PUSH2 0x1D1C PUSH2 0x22E7 JUMP JUMPDEST JUMPDEST DUP2 MSTORE POP POP SWAP2 POP DUP1 PUSH1 0x40 MLOAD DUP1 PUSH1 0x80 ADD PUSH1 0x40 MSTORE SWAP1 DUP2 PUSH0 DUP3 ADD PUSH1 0x40 MLOAD DUP1 PUSH1 0x40 ADD PUSH1 0x40 MSTORE SWAP1 DUP2 PUSH0 DUP3 ADD PUSH0 SWAP1 SLOAD SWAP1 PUSH2 0x100 EXP SWAP1 DIV PUSH20 0xFFFFFFFFFFFFFFFFFFFFFFFFFFFFFFFFFFFFFFFF AND PUSH20 0xFFFFFFFFFFFFFFFFFFFFFFFFFFFFFFFFFFFFFFFF AND PUSH20 0xFFFFFFFFFFFFFFFFFFFFFFFFFFFFFFFFFFFFFFFF AND DUP2 MSTORE PUSH1 0x20 ADD PUSH1 0x1 DUP3 ADD SLOAD DUP2 MSTORE POP POP DUP2 MSTORE PUSH1 0x20 ADD PUSH1 0x2 DUP3 ADD PUSH1 0x40 MLOAD DUP1 PUSH1 0x40 ADD PUSH1 0x40 MSTORE SWAP1 DUP2 PUSH0 DUP3 ADD PUSH0 SWAP1 SLOAD SWAP1 PUSH2 0x100 EXP SWAP1 DIV PUSH20 0xFFFFFFFFFFFFFFFFFFFFFFFFFFFFFFFFFFFFFFFF AND PUSH20 0xFFFFFFFFFFFFFFFFFFFFFFFFFFFFFFFFFFFFFFFF AND PUSH20 0xFFFFFFFFFFFFFFFFFFFFFFFFFFFFFFFFFFFFFFFF AND DUP2 MSTORE PUSH1 0x20 ADD PUSH1 0x1 DUP3 ADD SLOAD DUP2 MSTORE POP POP DUP2 MSTORE PUSH1 0x20 ADD PUSH1 0x4 DUP3 ADD PUSH1 0x40 MLOAD DUP1 PUSH1 0x40 ADD PUSH1 0x40 MSTORE SWAP1 DUP2 PUSH0 DUP3 ADD PUSH0 SWAP1 SLOAD SWAP1 PUSH2 0x100 EXP SWAP1 DIV PUSH20 0xFFFFFFFFFFFFFFFFFFFFFFFFFFFFFFFFFFFFFFFF AND PUSH20 0xFFFFFFFFFFFFFFFFFFFFFFFFFFFFFFFFFFFFFFFF AND PUSH20 0xFFFFFFFFFFFFFFFFFFFFFFFFFFFFFFFFFFFFFFFF AND DUP2 MSTORE PUSH1 0x20 ADD PUSH1 0x1 DUP3 ADD SLOAD DUP2 MSTORE POP POP DUP2 MSTORE PUSH1 0x20 ADD PUSH1 0x6 DUP3 ADD DUP1 SLOAD DUP1 PUSH1 0x20 MUL PUSH1 0x20 ADD PUSH1 0x40 MLOAD SWAP1 DUP2 ADD PUSH1 0x40 MSTORE DUP1 SWAP3 SWAP2 SWAP1 DUP2 DUP2 MSTORE PUSH1 0x20 ADD PUSH0 SWAP1 JUMPDEST DUP3 DUP3 LT ISZERO PUSH2 0x1F36 JUMPI DUP4 DUP3 SWAP1 PUSH0 MSTORE PUSH1 0x20 PUSH0 KECCAK256 SWAP1 PUSH1 0x2 MUL ADD PUSH1 0x40 MLOAD DUP1 PUSH1 0x40 ADD PUSH1 0x40 MSTORE SWAP1 DUP2 PUSH0 DUP3 ADD PUSH0 SWAP1 SLOAD SWAP1 PUSH2 0x100 EXP SWAP1 DIV PUSH20 0xFFFFFFFFFFFFFFFFFFFFFFFFFFFFFFFFFFFFFFFF AND PUSH20 0xFFFFFFFFFFFFFFFFFFFFFFFFFFFFFFFFFFFFFFFF AND PUSH20 0xFFFFFFFFFFFFFFFFFFFFFFFFFFFFFFFFFFFFFFFF AND DUP2 MSTORE PUSH1 0x20 ADD PUSH1 0x1 DUP3 ADD SLOAD DUP2 MSTORE POP POP DUP2 MSTORE PUSH1 0x20 ADD SWAP1 PUSH1 0x1 ADD SWAP1 PUSH2 0x1EA8 JUMP JUMPDEST POP POP POP POP DUP2 MSTORE POP POP SWAP1 POP SWAP2 POP SWAP2 POP SWAP2 POP SWAP2 JUMP JUMPDEST PUSH2 0x1F51 PUSH2 0x3205 JUMP JUMPDEST JUMP JUMPDEST PUSH1 0x40 MLOAD DUP1 PUSH2 0x120 ADD PUSH1 0x40 MSTORE DUP1 PUSH1 0x60 DUP2 MSTORE PUSH1 0x20 ADD PUSH1 0x60 DUP2 MSTORE PUSH1 0x20 ADD PUSH0 DUP2 MSTORE PUSH1 0x20 ADD PUSH0 DUP2 MSTORE PUSH1 0x20 ADD PUSH0 DUP2 MSTORE PUSH1 0x20 ADD PUSH1 0x60 DUP2 MSTORE PUSH1 0x20 ADD PUSH0 DUP2 MSTORE PUSH1 0x20 ADD PUSH0 DUP2 MSTORE PUSH1 0x20 ADD PUSH0 PUSH1 0x1 DUP2 GT ISZERO PUSH2 0x1FA5 JUMPI PUSH2 0x1FA4 PUSH2 0x22E7 JUMP JUMPDEST JUMPDEST DUP2 MSTORE POP SWAP1 JUMP JUMPDEST PUSH1 0x40 MLOAD DUP1 PUSH1 0x80 ADD PUSH1 0x40 MSTORE DUP1 PUSH2 0x1FBE PUSH2 0x2034 JUMP JUMPDEST DUP2 MSTORE PUSH1 0x20 ADD PUSH2 0x1FCB PUSH2 0x2034 JUMP JUMPDEST DUP2 MSTORE PUSH1 0x20 ADD PUSH2 0x1FD8 PUSH2 0x2034 JUMP JUMPDEST DUP2 MSTORE PUSH1 0x20 ADD PUSH1 0x60 DUP2 MSTORE POP SWAP1 JUMP JUMPDEST PUSH1 0x40 MLOAD DUP1 PUSH1 0x80 ADD PUSH1 0x40 MSTORE DUP1 PUSH0 PUSH20 0xFFFFFFFFFFFFFFFFFFFFFFFFFFFFFFFFFFFFFFFF AND DUP2 MSTORE PUSH1 0x20 ADD PUSH1 0x60 DUP2 MSTORE PUSH1 0x20 ADD PUSH0 PUSH1 0x4 DUP2 GT ISZERO PUSH2 0x2026 JUMPI PUSH2 0x2025 PUSH2 0x22E7 JUMP JUMPDEST JUMPDEST DUP2 MSTORE PUSH1 0x20 ADD PUSH0 ISZERO ISZERO DUP2 MSTORE POP SWAP1 JUMP JUMPDEST PUSH1 0x40 MLOAD DUP1 PUSH1 0x40 ADD PUSH1 0x40 MSTORE DUP1 PUSH0 PUSH20 0xFFFFFFFFFFFFFFFFFFFFFFFFFFFFFFFFFFFFFFFF AND DUP2 MSTORE PUSH1 0x20 ADD PUSH0 DUP2 MSTORE POP SWAP1 JUMP JUMPDEST PUSH0 PUSH1 0x40 MLOAD SWAP1 POP SWAP1 JUMP JUMPDEST PUSH0 DUP1 REVERT JUMPDEST PUSH0 DUP1 REVERT JUMPDEST PUSH0 PUSH20 0xFFFFFFFFFFFFFFFFFFFFFFFFFFFFFFFFFFFFFFFF DUP3 AND SWAP1 POP SWAP2 SWAP1 POP JUMP JUMPDEST PUSH0 PUSH2 0x209C DUP3 PUSH2 0x2073 JUMP JUMPDEST SWAP1 POP SWAP2 SWAP1 POP JUMP JUMPDEST PUSH2 0x20AC DUP2 PUSH2 0x2092 JUMP JUMPDEST DUP2 EQ PUSH2 0x20B6 JUMPI PUSH0 DUP1 REVERT JUMPDEST POP JUMP JUMPDEST PUSH0 DUP2 CALLDATALOAD SWAP1 POP PUSH2 0x20C7 DUP2 PUSH2 0x20A3 JUMP JUMPDEST SWAP3 SWAP2 POP POP JUMP JUMPDEST PUSH1 0x5 DUP2 LT PUSH2 0x20D9 JUMPI PUSH0 DUP1 REVERT JUMPDEST POP JUMP JUMPDEST PUSH0 DUP2 CALLDATALOAD SWAP1 POP PUSH2 0x20EA DUP2 PUSH2 0x20CD JUMP JUMPDEST SWAP3 SWAP2 POP POP JUMP JUMPDEST PUSH0 DUP1 PUSH1 0x40 DUP4 DUP6 SUB SLT ISZERO PUSH2 0x2106 JUMPI PUSH2 0x2105 PUSH2 0x206B JUMP JUMPDEST JUMPDEST PUSH0 PUSH2 0x2113 DUP6 DUP3 DUP7 ADD PUSH2 0x20B9 JUMP JUMPDEST SWAP3 POP POP PUSH1 0x20 PUSH2 0x2124 DUP6 DUP3 DUP7 ADD PUSH2 0x20DC JUMP JUMPDEST SWAP2 POP POP SWAP3 POP SWAP3 SWAP1 POP JUMP JUMPDEST PUSH0 DUP2 ISZERO ISZERO SWAP1 POP SWAP2 SWAP1 POP JUMP JUMPDEST PUSH2 0x2142 DUP2 PUSH2 0x212E JUMP JUMPDEST DUP3 MSTORE POP POP JUMP JUMPDEST PUSH0 PUSH1 0x20 DUP3 ADD SWAP1 POP PUSH2 0x215B PUSH0 DUP4 ADD DUP5 PUSH2 0x2139 JUMP JUMPDEST SWAP3 SWAP2 POP POP JUMP JUMPDEST PUSH0 DUP2 MLOAD SWAP1 POP SWAP2 SWAP1 POP JUMP JUMPDEST PUSH0 DUP3 DUP3 MSTORE PUSH1 0x20 DUP3 ADD SWAP1 POP SWAP3 SWAP2 POP POP JUMP JUMPDEST PUSH0 DUP2 SWAP1 POP PUSH1 0x20 DUP3 ADD SWAP1 POP SWAP2 SWAP1 POP JUMP JUMPDEST PUSH0 DUP2 MLOAD SWAP1 POP SWAP2 SWAP1 POP JUMP JUMPDEST PUSH0 DUP3 DUP3 MSTORE PUSH1 0x20 DUP3 ADD SWAP1 POP SWAP3 SWAP2 POP POP JUMP JUMPDEST PUSH0 JUMPDEST DUP4 DUP2 LT ISZERO PUSH2 0x21C1 JUMPI DUP1 DUP3 ADD MLOAD DUP2 DUP5 ADD MSTORE PUSH1 0x20 DUP2 ADD SWAP1 POP PUSH2 0x21A6 JUMP JUMPDEST PUSH0 DUP5 DUP5 ADD MSTORE POP POP POP POP JUMP JUMPDEST PUSH0 PUSH1 0x1F NOT PUSH1 0x1F DUP4 ADD AND SWAP1 POP SWAP2 SWAP1 POP JUMP JUMPDEST PUSH0 PUSH2 0x21E6 DUP3 PUSH2 0x218A JUMP JUMPDEST PUSH2 0x21F0 DUP2 DUP6 PUSH2 0x2194 JUMP JUMPDEST SWAP4 POP PUSH2 0x2200 DUP2 DUP6 PUSH1 0x20 DUP7 ADD PUSH2 0x21A4 JUMP JUMPDEST PUSH2 0x2209 DUP2 PUSH2 0x21CC JUMP JUMPDEST DUP5 ADD SWAP2 POP POP SWAP3 SWAP2 POP POP JUMP JUMPDEST PUSH0 DUP2 SWAP1 POP SWAP2 SWAP1 POP JUMP JUMPDEST PUSH2 0x2226 DUP2 PUSH2 0x2214 JUMP JUMPDEST DUP3 MSTORE POP POP JUMP JUMPDEST PUSH0 DUP2 MLOAD SWAP1 POP SWAP2 SWAP1 POP JUMP JUMPDEST PUSH0 DUP3 DUP3 MSTORE PUSH1 0x20 DUP3 ADD SWAP1 POP SWAP3 SWAP2 POP POP JUMP JUMPDEST PUSH0 DUP2 SWAP1 POP PUSH1 0x20 DUP3 ADD SWAP1 POP SWAP2 SWAP1 POP JUMP JUMPDEST PUSH0 PUSH2 0x2260 DUP4 DUP4 PUSH2 0x21DC JUMP JUMPDEST SWAP1 POP SWAP3 SWAP2 POP POP JUMP JUMPDEST PUSH0 PUSH1 0x20 DUP3 ADD SWAP1 POP SWAP2 SWAP1 POP JUMP JUMPDEST PUSH0 PUSH2 0x227E DUP3 PUSH2 0x222C JUMP JUMPDEST PUSH2 0x2288 DUP2 DUP6 PUSH2 0x2236 JUMP JUMPDEST SWAP4 POP DUP4 PUSH1 0x20 DUP3 MUL DUP6 ADD PUSH2 0x229A DUP6 PUSH2 0x2246 JUMP JUMPDEST DUP1 PUSH0 JUMPDEST DUP6 DUP2 LT ISZERO PUSH2 0x22D5 JUMPI DUP5 DUP5 SUB DUP10 MSTORE DUP2 MLOAD PUSH2 0x22B6 DUP6 DUP3 PUSH2 0x2255 JUMP JUMPDEST SWAP5 POP PUSH2 0x22C1 DUP4 PUSH2 0x2268 JUMP JUMPDEST SWAP3 POP PUSH1 0x20 DUP11 ADD SWAP10 POP POP PUSH1 0x1 DUP2 ADD SWAP1 POP PUSH2 0x229D JUMP JUMPDEST POP DUP3 SWAP8 POP DUP8 SWAP6 POP POP POP POP POP POP SWAP3 SWAP2 POP POP JUMP JUMPDEST PUSH32 0x4E487B7100000000000000000000000000000000000000000000000000000000 PUSH0 MSTORE PUSH1 0x21 PUSH1 0x4 MSTORE PUSH1 0x24 PUSH0 REVERT JUMPDEST PUSH1 0x2 DUP2 LT PUSH2 0x2325 JUMPI PUSH2 0x2324 PUSH2 0x22E7 JUMP JUMPDEST JUMPDEST POP JUMP JUMPDEST PUSH0 DUP2 SWAP1 POP PUSH2 0x2335 DUP3 PUSH2 0x2314 JUMP JUMPDEST SWAP2 SWAP1 POP JUMP JUMPDEST PUSH0 PUSH2 0x2344 DUP3 PUSH2 0x2328 JUMP JUMPDEST SWAP1 POP SWAP2 SWAP1 POP JUMP JUMPDEST PUSH2 0x2354 DUP2 PUSH2 0x233A JUMP JUMPDEST DUP3 MSTORE POP POP JUMP JUMPDEST PUSH0 PUSH2 0x120 DUP4 ADD PUSH0 DUP4 ADD MLOAD DUP5 DUP3 SUB PUSH0 DUP7 ADD MSTORE PUSH2 0x2375 DUP3 DUP3 PUSH2 0x21DC JUMP JUMPDEST SWAP2 POP POP PUSH1 0x20 DUP4 ADD MLOAD DUP5 DUP3 SUB PUSH1 0x20 DUP7 ADD MSTORE PUSH2 0x238F DUP3 DUP3 PUSH2 0x21DC JUMP JUMPDEST SWAP2 POP POP PUSH1 0x40 DUP4 ADD MLOAD PUSH2 0x23A4 PUSH1 0x40 DUP7 ADD DUP3 PUSH2 0x221D JUMP JUMPDEST POP PUSH1 0x60 DUP4 ADD MLOAD PUSH2 0x23B7 PUSH1 0x60 DUP7 ADD DUP3 PUSH2 0x221D JUMP JUMPDEST POP PUSH1 0x80 DUP4 ADD MLOAD PUSH2 0x23CA PUSH1 0x80 DUP7 ADD DUP3 PUSH2 0x221D JUMP JUMPDEST POP PUSH1 0xA0 DUP4 ADD MLOAD DUP5 DUP3 SUB PUSH1 0xA0 DUP7 ADD MSTORE PUSH2 0x23E2 DUP3 DUP3 PUSH2 0x2274 JUMP JUMPDEST SWAP2 POP POP PUSH1 0xC0 DUP4 ADD MLOAD PUSH2 0x23F7 PUSH1 0xC0 DUP7 ADD DUP3 PUSH2 0x221D JUMP JUMPDEST POP PUSH1 0xE0 DUP4 ADD MLOAD PUSH2 0x240A PUSH1 0xE0 DUP7 ADD DUP3 PUSH2 0x221D JUMP JUMPDEST POP PUSH2 0x100 DUP4 ADD MLOAD PUSH2 0x241F PUSH2 0x100 DUP7 ADD DUP3 PUSH2 0x234B JUMP JUMPDEST POP DUP1 SWAP2 POP POP SWAP3 SWAP2 POP POP JUMP JUMPDEST PUSH0 PUSH2 0x2435 DUP4 DUP4 PUSH2 0x235A JUMP JUMPDEST SWAP1 POP SWAP3 SWAP2 POP POP JUMP JUMPDEST PUSH0 PUSH1 0x20 DUP3 ADD SWAP1 POP SWAP2 SWAP1 POP JUMP JUMPDEST PUSH0 PUSH2 0x2453 DUP3 PUSH2 0x2161 JUMP JUMPDEST PUSH2 0x245D DUP2 DUP6 PUSH2 0x216B JUMP JUMPDEST SWAP4 POP DUP4 PUSH1 0x20 DUP3 MUL DUP6 ADD PUSH2 0x246F DUP6 PUSH2 0x217B JUMP JUMPDEST DUP1 PUSH0 JUMPDEST DUP6 DUP2 LT ISZERO PUSH2 0x24AA JUMPI DUP5 DUP5 SUB DUP10 MSTORE DUP2 MLOAD PUSH2 0x248B DUP6 DUP3 PUSH2 0x242A JUMP JUMPDEST SWAP5 POP PUSH2 0x2496 DUP4 PUSH2 0x243D JUMP JUMPDEST SWAP3 POP PUSH1 0x20 DUP11 ADD SWAP10 POP POP PUSH1 0x1 DUP2 ADD SWAP1 POP PUSH2 0x2472 JUMP JUMPDEST POP DUP3 SWAP8 POP DUP8 SWAP6 POP POP POP POP POP POP SWAP3 SWAP2 POP POP JUMP JUMPDEST PUSH0 PUSH1 0x20 DUP3 ADD SWAP1 POP DUP2 DUP2 SUB PUSH0 DUP4 ADD MSTORE PUSH2 0x24D4 DUP2 DUP5 PUSH2 0x2449 JUMP JUMPDEST SWAP1 POP SWAP3 SWAP2 POP POP JUMP JUMPDEST PUSH0 DUP1 REVERT JUMPDEST PUSH32 0x4E487B7100000000000000000000000000000000000000000000000000000000 PUSH0 MSTORE PUSH1 0x41 PUSH1 0x4 MSTORE PUSH1 0x24 PUSH0 REVERT JUMPDEST PUSH2 0x2516 DUP3 PUSH2 0x21CC JUMP JUMPDEST DUP2 ADD DUP2 DUP2 LT PUSH8 0xFFFFFFFFFFFFFFFF DUP3 GT OR ISZERO PUSH2 0x2535 JUMPI PUSH2 0x2534 PUSH2 0x24E0 JUMP JUMPDEST JUMPDEST DUP1 PUSH1 0x40 MSTORE POP POP POP JUMP JUMPDEST PUSH0 PUSH2 0x2547 PUSH2 0x2062 JUMP JUMPDEST SWAP1 POP PUSH2 0x2553 DUP3 DUP3 PUSH2 0x250D JUMP JUMPDEST SWAP2 SWAP1 POP JUMP JUMPDEST PUSH0 DUP1 REVERT JUMPDEST PUSH0 DUP1 REVERT JUMPDEST PUSH0 DUP1 REVERT JUMPDEST PUSH0 PUSH8 0xFFFFFFFFFFFFFFFF DUP3 GT ISZERO PUSH2 0x257E JUMPI PUSH2 0x257D PUSH2 0x24E0 JUMP JUMPDEST JUMPDEST PUSH2 0x2587 DUP3 PUSH2 0x21CC JUMP JUMPDEST SWAP1 POP PUSH1 0x20 DUP2 ADD SWAP1 POP SWAP2 SWAP1 POP JUMP JUMPDEST DUP3 DUP2 DUP4 CALLDATACOPY PUSH0 DUP4 DUP4 ADD MSTORE POP POP POP JUMP JUMPDEST PUSH0 PUSH2 0x25B4 PUSH2 0x25AF DUP5 PUSH2 0x2564 JUMP JUMPDEST PUSH2 0x253E JUMP JUMPDEST SWAP1 POP DUP3 DUP2 MSTORE PUSH1 0x20 DUP2 ADD DUP5 DUP5 DUP5 ADD GT ISZERO PUSH2 0x25D0 JUMPI PUSH2 0x25CF PUSH2 0x2560 JUMP JUMPDEST JUMPDEST PUSH2 0x25DB DUP5 DUP3 DUP6 PUSH2 0x2594 JUMP JUMPDEST POP SWAP4 SWAP3 POP POP POP JUMP JUMPDEST PUSH0 DUP3 PUSH1 0x1F DUP4 ADD SLT PUSH2 0x25F7 JUMPI PUSH2 0x25F6 PUSH2 0x255C JUMP JUMPDEST JUMPDEST DUP2 CALLDATALOAD PUSH2 0x2607 DUP5 DUP3 PUSH1 0x20 DUP7 ADD PUSH2 0x25A2 JUMP JUMPDEST SWAP2 POP POP SWAP3 SWAP2 POP POP JUMP JUMPDEST PUSH2 0x2619 DUP2 PUSH2 0x2214 JUMP JUMPDEST DUP2 EQ PUSH2 0x2623 JUMPI PUSH0 DUP1 REVERT JUMPDEST POP JUMP JUMPDEST PUSH0 DUP2 CALLDATALOAD SWAP1 POP PUSH2 0x2634 DUP2 PUSH2 0x2610 JUMP JUMPDEST SWAP3 SWAP2 POP POP JUMP JUMPDEST PUSH0 PUSH8 0xFFFFFFFFFFFFFFFF DUP3 GT ISZERO PUSH2 0x2654 JUMPI PUSH2 0x2653 PUSH2 0x24E0 JUMP JUMPDEST JUMPDEST PUSH1 0x20 DUP3 MUL SWAP1 POP PUSH1 0x20 DUP2 ADD SWAP1 POP SWAP2 SWAP1 POP JUMP JUMPDEST PUSH0 DUP1 REVERT JUMPDEST PUSH0 PUSH2 0x267B PUSH2 0x2676 DUP5 PUSH2 0x263A JUMP JUMPDEST PUSH2 0x253E JUMP JUMPDEST SWAP1 POP DUP1 DUP4 DUP3 MSTORE PUSH1 0x20 DUP3 ADD SWAP1 POP PUSH1 0x20 DUP5 MUL DUP4 ADD DUP6 DUP2 GT ISZERO PUSH2 0x269E JUMPI PUSH2 0x269D PUSH2 0x2665 JUMP JUMPDEST JUMPDEST DUP4 JUMPDEST DUP2 DUP2 LT ISZERO PUSH2 0x26E5 JUMPI DUP1 CALLDATALOAD PUSH8 0xFFFFFFFFFFFFFFFF DUP2 GT ISZERO PUSH2 0x26C3 JUMPI PUSH2 0x26C2 PUSH2 0x255C JUMP JUMPDEST JUMPDEST DUP1 DUP7 ADD PUSH2 0x26D0 DUP10 DUP3 PUSH2 0x25E3 JUMP JUMPDEST DUP6 MSTORE PUSH1 0x20 DUP6 ADD SWAP5 POP POP POP PUSH1 0x20 DUP2 ADD SWAP1 POP PUSH2 0x26A0 JUMP JUMPDEST POP POP POP SWAP4 SWAP3 POP POP POP JUMP JUMPDEST PUSH0 DUP3 PUSH1 0x1F DUP4 ADD SLT PUSH2 0x2703 JUMPI PUSH2 0x2702 PUSH2 0x255C JUMP JUMPDEST JUMPDEST DUP2 CALLDATALOAD PUSH2 0x2713 DUP5 DUP3 PUSH1 0x20 DUP7 ADD PUSH2 0x2669 JUMP JUMPDEST SWAP2 POP POP SWAP3 SWAP2 POP POP JUMP JUMPDEST PUSH1 0x2 DUP2 LT PUSH2 0x2728 JUMPI PUSH0 DUP1 REVERT JUMPDEST POP JUMP JUMPDEST PUSH0 DUP2 CALLDATALOAD SWAP1 POP PUSH2 0x2739 DUP2 PUSH2 0x271C JUMP JUMPDEST SWAP3 SWAP2 POP POP JUMP JUMPDEST PUSH0 PUSH2 0x120 DUP3 DUP5 SUB SLT ISZERO PUSH2 0x2755 JUMPI PUSH2 0x2754 PUSH2 0x24DC JUMP JUMPDEST JUMPDEST PUSH2 0x2760 PUSH2 0x120 PUSH2 0x253E JUMP JUMPDEST SWAP1 POP PUSH0 DUP3 ADD CALLDATALOAD PUSH8 0xFFFFFFFFFFFFFFFF DUP2 GT ISZERO PUSH2 0x277F JUMPI PUSH2 0x277E PUSH2 0x2558 JUMP JUMPDEST JUMPDEST PUSH2 0x278B DUP5 DUP3 DUP6 ADD PUSH2 0x25E3 JUMP JUMPDEST PUSH0 DUP4 ADD MSTORE POP PUSH1 0x20 DUP3 ADD CALLDATALOAD PUSH8 0xFFFFFFFFFFFFFFFF DUP2 GT ISZERO PUSH2 0x27AE JUMPI PUSH2 0x27AD PUSH2 0x2558 JUMP JUMPDEST JUMPDEST PUSH2 0x27BA DUP5 DUP3 DUP6 ADD PUSH2 0x25E3 JUMP JUMPDEST PUSH1 0x20 DUP4 ADD MSTORE POP PUSH1 0x40 PUSH2 0x27CE DUP5 DUP3 DUP6 ADD PUSH2 0x2626 JUMP JUMPDEST PUSH1 0x40 DUP4 ADD MSTORE POP PUSH1 0x60 PUSH2 0x27E2 DUP5 DUP3 DUP6 ADD PUSH2 0x2626 JUMP JUMPDEST PUSH1 0x60 DUP4 ADD MSTORE POP PUSH1 0x80 PUSH2 0x27F6 DUP5 DUP3 DUP6 ADD PUSH2 0x2626 JUMP JUMPDEST PUSH1 0x80 DUP4 ADD MSTORE POP PUSH1 0xA0 DUP3 ADD CALLDATALOAD PUSH8 0xFFFFFFFFFFFFFFFF DUP2 GT ISZERO PUSH2 0x281A JUMPI PUSH2 0x2819 PUSH2 0x2558 JUMP JUMPDEST JUMPDEST PUSH2 0x2826 DUP5 DUP3 DUP6 ADD PUSH2 0x26EF JUMP JUMPDEST PUSH1 0xA0 DUP4 ADD MSTORE POP PUSH1 0xC0 PUSH2 0x283A DUP5 DUP3 DUP6 ADD PUSH2 0x2626 JUMP JUMPDEST PUSH1 0xC0 DUP4 ADD MSTORE POP PUSH1 0xE0 PUSH2 0x284E DUP5 DUP3 DUP6 ADD PUSH2 0x2626 JUMP JUMPDEST PUSH1 0xE0 DUP4 ADD MSTORE POP PUSH2 0x100 PUSH2 0x2863 DUP5 DUP3 DUP6 ADD PUSH2 0x272B JUMP JUMPDEST PUSH2 0x100 DUP4 ADD MSTORE POP SWAP3 SWAP2 POP POP JUMP JUMPDEST PUSH0 DUP1 PUSH1 0x40 DUP4 DUP6 SUB SLT ISZERO PUSH2 0x2886 JUMPI PUSH2 0x2885 PUSH2 0x206B JUMP JUMPDEST JUMPDEST PUSH0 DUP4 ADD CALLDATALOAD PUSH8 0xFFFFFFFFFFFFFFFF DUP2 GT ISZERO PUSH2 0x28A3 JUMPI PUSH2 0x28A2 PUSH2 0x206F JUMP JUMPDEST JUMPDEST PUSH2 0x28AF DUP6 DUP3 DUP7 ADD PUSH2 0x273F JUMP JUMPDEST SWAP3 POP POP PUSH1 0x20 PUSH2 0x28C0 DUP6 DUP3 DUP7 ADD PUSH2 0x2626 JUMP JUMPDEST SWAP2 POP POP SWAP3 POP SWAP3 SWAP1 POP JUMP JUMPDEST PUSH2 0x28D3 DUP2 PUSH2 0x2092 JUMP JUMPDEST DUP3 MSTORE POP POP JUMP JUMPDEST PUSH0 PUSH1 0x20 DUP3 ADD SWAP1 POP PUSH2 0x28EC PUSH0 DUP4 ADD DUP5 PUSH2 0x28CA JUMP JUMPDEST SWAP3 SWAP2 POP POP JUMP JUMPDEST PUSH0 DUP1 PUSH0 PUSH1 0x60 DUP5 DUP7 SUB SLT ISZERO PUSH2 0x2909 JUMPI PUSH2 0x2908 PUSH2 0x206B JUMP JUMPDEST JUMPDEST PUSH0 PUSH2 0x2916 DUP7 DUP3 DUP8 ADD PUSH2 0x20B9 JUMP JUMPDEST SWAP4 POP POP PUSH1 0x20 DUP5 ADD CALLDATALOAD PUSH8 0xFFFFFFFFFFFFFFFF DUP2 GT ISZERO PUSH2 0x2937 JUMPI PUSH2 0x2936 PUSH2 0x206F JUMP JUMPDEST JUMPDEST PUSH2 0x2943 DUP7 DUP3 DUP8 ADD PUSH2 0x25E3 JUMP JUMPDEST SWAP3 POP POP PUSH1 0x40 PUSH2 0x2954 DUP7 DUP3 DUP8 ADD PUSH2 0x20DC JUMP JUMPDEST SWAP2 POP POP SWAP3 POP SWAP3 POP SWAP3 JUMP JUMPDEST PUSH0 DUP1 PUSH0 PUSH1 0x60 DUP5 DUP7 SUB SLT ISZERO PUSH2 0x2975 JUMPI PUSH2 0x2974 PUSH2 0x206B JUMP JUMPDEST JUMPDEST PUSH0 PUSH2 0x2982 DUP7 DUP3 DUP8 ADD PUSH2 0x20B9 JUMP JUMPDEST SWAP4 POP POP PUSH1 0x20 PUSH2 0x2993 DUP7 DUP3 DUP8 ADD PUSH2 0x2626 JUMP JUMPDEST SWAP3 POP POP PUSH1 0x40 PUSH2 0x29A4 DUP7 DUP3 DUP8 ADD PUSH2 0x2626 JUMP JUMPDEST SWAP2 POP POP SWAP3 POP SWAP3 POP SWAP3 JUMP JUMPDEST PUSH0 PUSH1 0x20 DUP3 DUP5 SUB SLT ISZERO PUSH2 0x29C3 JUMPI PUSH2 0x29C2 PUSH2 0x206B JUMP JUMPDEST JUMPDEST PUSH0 PUSH2 0x29D0 DUP5 DUP3 DUP6 ADD PUSH2 0x2626 JUMP JUMPDEST SWAP2 POP POP SWAP3 SWAP2 POP POP JUMP JUMPDEST PUSH0 PUSH2 0x120 DUP4 ADD PUSH0 DUP4 ADD MLOAD DUP5 DUP3 SUB PUSH0 DUP7 ADD MSTORE PUSH2 0x29F4 DUP3 DUP3 PUSH2 0x21DC JUMP JUMPDEST SWAP2 POP POP PUSH1 0x20 DUP4 ADD MLOAD DUP5 DUP3 SUB PUSH1 0x20 DUP7 ADD MSTORE PUSH2 0x2A0E DUP3 DUP3 PUSH2 0x21DC JUMP JUMPDEST SWAP2 POP POP PUSH1 0x40 DUP4 ADD MLOAD PUSH2 0x2A23 PUSH1 0x40 DUP7 ADD DUP3 PUSH2 0x221D JUMP JUMPDEST POP PUSH1 0x60 DUP4 ADD MLOAD PUSH2 0x2A36 PUSH1 0x60 DUP7 ADD DUP3 PUSH2 0x221D JUMP JUMPDEST POP PUSH1 0x80 DUP4 ADD MLOAD PUSH2 0x2A49 PUSH1 0x80 DUP7 ADD DUP3 PUSH2 0x221D JUMP JUMPDEST POP PUSH1 0xA0 DUP4 ADD MLOAD DUP5 DUP3 SUB PUSH1 0xA0 DUP7 ADD MSTORE PUSH2 0x2A61 DUP3 DUP3 PUSH2 0x2274 JUMP JUMPDEST SWAP2 POP POP PUSH1 0xC0 DUP4 ADD MLOAD PUSH2 0x2A76 PUSH1 0xC0 DUP7 ADD DUP3 PUSH2 0x221D JUMP JUMPDEST POP PUSH1 0xE0 DUP4 ADD MLOAD PUSH2 0x2A89 PUSH1 0xE0 DUP7 ADD DUP3 PUSH2 0x221D JUMP JUMPDEST POP PUSH2 0x100 DUP4 ADD MLOAD PUSH2 0x2A9E PUSH2 0x100 DUP7 ADD DUP3 PUSH2 0x234B JUMP JUMPDEST POP DUP1 SWAP2 POP POP SWAP3 SWAP2 POP POP JUMP JUMPDEST PUSH2 0x2AB2 DUP2 PUSH2 0x2092 JUMP JUMPDEST DUP3 MSTORE POP POP JUMP JUMPDEST PUSH1 0x40 DUP3 ADD PUSH0 DUP3 ADD MLOAD PUSH2 0x2ACC PUSH0 DUP6 ADD DUP3 PUSH2 0x2AA9 JUMP JUMPDEST POP PUSH1 0x20 DUP3 ADD MLOAD PUSH2 0x2ADF PUSH1 0x20 DUP6 ADD DUP3 PUSH2 0x221D JUMP JUMPDEST POP POP POP POP JUMP JUMPDEST PUSH0 DUP2 MLOAD SWAP1 POP SWAP2 SWAP1 POP JUMP JUMPDEST PUSH0 DUP3 DUP3 MSTORE PUSH1 0x20 DUP3 ADD SWAP1 POP SWAP3 SWAP2 POP POP JUMP JUMPDEST PUSH0 DUP2 SWAP1 POP PUSH1 0x20 DUP3 ADD SWAP1 POP SWAP2 SWAP1 POP JUMP JUMPDEST PUSH0 PUSH2 0x2B19 DUP4 DUP4 PUSH2 0x2AB8 JUMP JUMPDEST PUSH1 0x40 DUP4 ADD SWAP1 POP SWAP3 SWAP2 POP POP JUMP JUMPDEST PUSH0 PUSH1 0x20 DUP3 ADD SWAP1 POP SWAP2 SWAP1 POP JUMP JUMPDEST PUSH0 PUSH2 0x2B3B DUP3 PUSH2 0x2AE5 JUMP JUMPDEST PUSH2 0x2B45 DUP2 DUP6 PUSH2 0x2AEF JUMP JUMPDEST SWAP4 POP PUSH2 0x2B50 DUP4 PUSH2 0x2AFF JUMP JUMPDEST DUP1 PUSH0 JUMPDEST DUP4 DUP2 LT ISZERO PUSH2 0x2B80 JUMPI DUP2 MLOAD PUSH2 0x2B67 DUP9 DUP3 PUSH2 0x2B0E JUMP JUMPDEST SWAP8 POP PUSH2 0x2B72 DUP4 PUSH2 0x2B25 JUMP JUMPDEST SWAP3 POP POP PUSH1 0x1 DUP2 ADD SWAP1 POP PUSH2 0x2B53 JUMP JUMPDEST POP DUP6 SWAP4 POP POP POP POP SWAP3 SWAP2 POP POP JUMP JUMPDEST PUSH0 PUSH1 0xE0 DUP4 ADD PUSH0 DUP4 ADD MLOAD PUSH2 0x2BA2 PUSH0 DUP7 ADD DUP3 PUSH2 0x2AB8 JUMP JUMPDEST POP PUSH1 0x20 DUP4 ADD MLOAD PUSH2 0x2BB5 PUSH1 0x40 DUP7 ADD DUP3 PUSH2 0x2AB8 JUMP JUMPDEST POP PUSH1 0x40 DUP4 ADD MLOAD PUSH2 0x2BC8 PUSH1 0x80 DUP7 ADD DUP3 PUSH2 0x2AB8 JUMP JUMPDEST POP PUSH1 0x60 DUP4 ADD MLOAD DUP5 DUP3 SUB PUSH1 0xC0 DUP7 ADD MSTORE PUSH2 0x2BE0 DUP3 DUP3 PUSH2 0x2B31 JUMP JUMPDEST SWAP2 POP POP DUP1 SWAP2 POP POP SWAP3 SWAP2 POP POP JUMP JUMPDEST PUSH0 PUSH1 0x40 DUP3 ADD SWAP1 POP DUP2 DUP2 SUB PUSH0 DUP4 ADD MSTORE PUSH2 0x2C05 DUP2 DUP6 PUSH2 0x29D9 JUMP JUMPDEST SWAP1 POP DUP2 DUP2 SUB PUSH1 0x20 DUP4 ADD MSTORE PUSH2 0x2C19 DUP2 DUP5 PUSH2 0x2B8D JUMP JUMPDEST SWAP1 POP SWAP4 SWAP3 POP POP POP JUMP JUMPDEST PUSH1 0x5 DUP2 LT PUSH2 0x2C33 JUMPI PUSH2 0x2C32 PUSH2 0x22E7 JUMP JUMPDEST JUMPDEST POP JUMP JUMPDEST PUSH0 DUP2 SWAP1 POP PUSH2 0x2C43 DUP3 PUSH2 0x2C22 JUMP JUMPDEST SWAP2 SWAP1 POP JUMP JUMPDEST PUSH0 PUSH2 0x2C52 DUP3 PUSH2 0x2C36 JUMP JUMPDEST SWAP1 POP SWAP2 SWAP1 POP JUMP JUMPDEST PUSH2 0x2C62 DUP2 PUSH2 0x2C48 JUMP JUMPDEST DUP3 MSTORE POP POP JUMP JUMPDEST PUSH2 0x2C71 DUP2 PUSH2 0x212E JUMP JUMPDEST DUP3 MSTORE POP POP JUMP JUMPDEST PUSH0 PUSH1 0x80 DUP4 ADD PUSH0 DUP4 ADD MLOAD PUSH2 0x2C8C PUSH0 DUP7 ADD DUP3 PUSH2 0x2AA9 JUMP JUMPDEST POP PUSH1 0x20 DUP4 ADD MLOAD DUP5 DUP3 SUB PUSH1 0x20 DUP7 ADD MSTORE PUSH2 0x2CA4 DUP3 DUP3 PUSH2 0x21DC JUMP JUMPDEST SWAP2 POP POP PUSH1 0x40 DUP4 ADD MLOAD PUSH2 0x2CB9 PUSH1 0x40 DUP7 ADD DUP3 PUSH2 0x2C59 JUMP JUMPDEST POP PUSH1 0x60 DUP4 ADD MLOAD PUSH2 0x2CCC PUSH1 0x60 DUP7 ADD DUP3 PUSH2 0x2C68 JUMP JUMPDEST POP DUP1 SWAP2 POP POP SWAP3 SWAP2 POP POP JUMP JUMPDEST PUSH0 PUSH1 0x20 DUP3 ADD SWAP1 POP DUP2 DUP2 SUB PUSH0 DUP4 ADD MSTORE PUSH2 0x2CEF DUP2 DUP5 PUSH2 0x2C77 JUMP JUMPDEST SWAP1 POP SWAP3 SWAP2 POP POP JUMP JUMPDEST PUSH2 0x2D00 DUP2 PUSH2 0x212E JUMP JUMPDEST DUP2 EQ PUSH2 0x2D0A JUMPI PUSH0 DUP1 REVERT JUMPDEST POP JUMP JUMPDEST PUSH0 DUP2 CALLDATALOAD SWAP1 POP PUSH2 0x2D1B DUP2 PUSH2 0x2CF7 JUMP JUMPDEST SWAP3 SWAP2 POP POP JUMP JUMPDEST PUSH0 PUSH1 0x80 DUP3 DUP5 SUB SLT ISZERO PUSH2 0x2D36 JUMPI PUSH2 0x2D35 PUSH2 0x24DC JUMP JUMPDEST JUMPDEST PUSH2 0x2D40 PUSH1 0x80 PUSH2 0x253E JUMP JUMPDEST SWAP1 POP PUSH0 PUSH2 0x2D4F DUP5 DUP3 DUP6 ADD PUSH2 0x20B9 JUMP JUMPDEST PUSH0 DUP4 ADD MSTORE POP PUSH1 0x20 DUP3 ADD CALLDATALOAD PUSH8 0xFFFFFFFFFFFFFFFF DUP2 GT ISZERO PUSH2 0x2D72 JUMPI PUSH2 0x2D71 PUSH2 0x2558 JUMP JUMPDEST JUMPDEST PUSH2 0x2D7E DUP5 DUP3 DUP6 ADD PUSH2 0x25E3 JUMP JUMPDEST PUSH1 0x20 DUP4 ADD MSTORE POP PUSH1 0x40 PUSH2 0x2D92 DUP5 DUP3 DUP6 ADD PUSH2 0x20DC JUMP JUMPDEST PUSH1 0x40 DUP4 ADD MSTORE POP PUSH1 0x60 PUSH2 0x2DA6 DUP5 DUP3 DUP6 ADD PUSH2 0x2D0D JUMP JUMPDEST PUSH1 0x60 DUP4 ADD MSTORE POP SWAP3 SWAP2 POP POP JUMP JUMPDEST PUSH0 PUSH1 0x20 DUP3 DUP5 SUB SLT ISZERO PUSH2 0x2DC7 JUMPI PUSH2 0x2DC6 PUSH2 0x206B JUMP JUMPDEST JUMPDEST PUSH0 DUP3 ADD CALLDATALOAD PUSH8 0xFFFFFFFFFFFFFFFF DUP2 GT ISZERO PUSH2 0x2DE4 JUMPI PUSH2 0x2DE3 PUSH2 0x206F JUMP JUMPDEST JUMPDEST PUSH2 0x2DF0 DUP5 DUP3 DUP6 ADD PUSH2 0x2D21 JUMP JUMPDEST SWAP2 POP POP SWAP3 SWAP2 POP POP JUMP JUMPDEST PUSH32 0x4E487B7100000000000000000000000000000000000000000000000000000000 PUSH0 MSTORE PUSH1 0x22 PUSH1 0x4 MSTORE PUSH1 0x24 PUSH0 REVERT JUMPDEST PUSH0 PUSH1 0x2 DUP3 DIV SWAP1 POP PUSH1 0x1 DUP3 AND DUP1 PUSH2 0x2E3D JUMPI PUSH1 0x7F DUP3 AND SWAP2 POP JUMPDEST PUSH1 0x20 DUP3 LT DUP2 SUB PUSH2 0x2E50 JUMPI PUSH2 0x2E4F PUSH2 0x2DF9 JUMP JUMPDEST JUMPDEST POP SWAP2 SWAP1 POP JUMP JUMPDEST PUSH0 DUP3 DUP3 MSTORE PUSH1 0x20 DUP3 ADD SWAP1 POP SWAP3 SWAP2 POP POP JUMP JUMPDEST PUSH32 0x53656E646572206164647265737320697320656D707479000000000000000000 PUSH0 DUP3 ADD MSTORE POP JUMP JUMPDEST PUSH0 PUSH2 0x2E9A PUSH1 0x17 DUP4 PUSH2 0x2E56 JUMP JUMPDEST SWAP2 POP PUSH2 0x2EA5 DUP3 PUSH2 0x2E66 JUMP JUMPDEST PUSH1 0x20 DUP3 ADD SWAP1 POP SWAP2 SWAP1 POP JUMP JUMPDEST PUSH0 PUSH1 0x20 DUP3 ADD SWAP1 POP DUP2 DUP2 SUB PUSH0 DUP4 ADD MSTORE PUSH2 0x2EC7 DUP2 PUSH2 0x2E8E JUMP JUMPDEST SWAP1 POP SWAP2 SWAP1 POP JUMP JUMPDEST PUSH32 0x4D616E756661637475726572206C69737420656D707479000000000000000000 PUSH0 DUP3 ADD MSTORE POP JUMP JUMPDEST PUSH0 PUSH2 0x2F02 PUSH1 0x17 DUP4 PUSH2 0x2E56 JUMP JUMPDEST SWAP2 POP PUSH2 0x2F0D DUP3 PUSH2 0x2ECE JUMP JUMPDEST PUSH1 0x20 DUP3 ADD SWAP1 POP SWAP2 SWAP1 POP JUMP JUMPDEST PUSH0 PUSH1 0x20 DUP3 ADD SWAP1 POP DUP2 DUP2 SUB PUSH0 DUP4 ADD MSTORE PUSH2 0x2F2F DUP2 PUSH2 0x2EF6 JUMP JUMPDEST SWAP1 POP SWAP2 SWAP1 POP JUMP JUMPDEST PUSH0 DUP2 SWAP1 POP DUP2 PUSH0 MSTORE PUSH1 0x20 PUSH0 KECCAK256 SWAP1 POP SWAP2 SWAP1 POP JUMP JUMPDEST PUSH0 PUSH1 0x20 PUSH1 0x1F DUP4 ADD DIV SWAP1 POP SWAP2 SWAP1 POP JUMP JUMPDEST PUSH0 DUP3 DUP3 SHL SWAP1 POP SWAP3 SWAP2 POP POP JUMP JUMPDEST PUSH0 PUSH1 0x8 DUP4 MUL PUSH2 0x2F92 PUSH32 0xFFFFFFFFFFFFFFFFFFFFFFFFFFFFFFFFFFFFFFFFFFFFFFFFFFFFFFFFFFFFFFFF DUP3 PUSH2 0x2F57 JUMP JUMPDEST PUSH2 0x2F9C DUP7 DUP4 PUSH2 0x2F57 JUMP JUMPDEST SWAP6 POP DUP1 NOT DUP5 AND SWAP4 POP DUP1 DUP7 AND DUP5 OR SWAP3 POP POP POP SWAP4 SWAP3 POP POP POP JUMP JUMPDEST PUSH0 DUP2 SWAP1 POP SWAP2 SWAP1 POP JUMP JUMPDEST PUSH0 PUSH2 0x2FD7 PUSH2 0x2FD2 PUSH2 0x2FCD DUP5 PUSH2 0x2214 JUMP JUMPDEST PUSH2 0x2FB4 JUMP JUMPDEST PUSH2 0x2214 JUMP JUMPDEST SWAP1 POP SWAP2 SWAP1 POP JUMP JUMPDEST PUSH0 DUP2 SWAP1 POP SWAP2 SWAP1 POP JUMP JUMPDEST PUSH2 0x2FF0 DUP4 PUSH2 0x2FBD JUMP JUMPDEST PUSH2 0x3004 PUSH2 0x2FFC DUP3 PUSH2 0x2FDE JUMP JUMPDEST DUP5 DUP5 SLOAD PUSH2 0x2F63 JUMP JUMPDEST DUP3 SSTORE POP POP POP POP JUMP JUMPDEST PUSH0 SWAP1 JUMP JUMPDEST PUSH2 0x3018 PUSH2 0x300C JUMP JUMPDEST PUSH2 0x3023 DUP2 DUP5 DUP5 PUSH2 0x2FE7 JUMP JUMPDEST POP POP POP JUMP JUMPDEST JUMPDEST DUP2 DUP2 LT ISZERO PUSH2 0x3046 JUMPI PUSH2 0x303B PUSH0 DUP3 PUSH2 0x3010 JUMP JUMPDEST PUSH1 0x1 DUP2 ADD SWAP1 POP PUSH2 0x3029 JUMP JUMPDEST POP POP JUMP JUMPDEST PUSH1 0x1F DUP3 GT ISZERO PUSH2 0x308B JUMPI PUSH2 0x305C DUP2 PUSH2 0x2F36 JUMP JUMPDEST PUSH2 0x3065 DUP5 PUSH2 0x2F48 JUMP JUMPDEST DUP2 ADD PUSH1 0x20 DUP6 LT ISZERO PUSH2 0x3074 JUMPI DUP2 SWAP1 POP JUMPDEST PUSH2 0x3088 PUSH2 0x3080 DUP6 PUSH2 0x2F48 JUMP JUMPDEST DUP4 ADD DUP3 PUSH2 0x3028 JUMP JUMPDEST POP POP JUMPDEST POP POP POP JUMP JUMPDEST PUSH0 DUP3 DUP3 SHR SWAP1 POP SWAP3 SWAP2 POP POP JUMP JUMPDEST PUSH0 PUSH2 0x30AB PUSH0 NOT DUP5 PUSH1 0x8 MUL PUSH2 0x3090 JUMP JUMPDEST NOT DUP1 DUP4 AND SWAP2 POP POP SWAP3 SWAP2 POP POP JUMP JUMPDEST PUSH0 PUSH2 0x30C3 DUP4 DUP4 PUSH2 0x309C JUMP JUMPDEST SWAP2 POP DUP3 PUSH1 0x2 MUL DUP3 OR SWAP1 POP SWAP3 SWAP2 POP POP JUMP JUMPDEST PUSH2 0x30DC DUP3 PUSH2 0x218A JUMP JUMPDEST PUSH8 0xFFFFFFFFFFFFFFFF DUP2 GT ISZERO PUSH2 0x30F5 JUMPI PUSH2 0x30F4 PUSH2 0x24E0 JUMP JUMPDEST JUMPDEST PUSH2 0x30FF DUP3 SLOAD PUSH2 0x2E26 JUMP JUMPDEST PUSH2 0x310A DUP3 DUP3 DUP6 PUSH2 0x304A JUMP JUMPDEST PUSH0 PUSH1 0x20 SWAP1 POP PUSH1 0x1F DUP4 GT PUSH1 0x1 DUP2 EQ PUSH2 0x313B JUMPI PUSH0 DUP5 ISZERO PUSH2 0x3129 JUMPI DUP3 DUP8 ADD MLOAD SWAP1 POP JUMPDEST PUSH2 0x3133 DUP6 DUP3 PUSH2 0x30B8 JUMP JUMPDEST DUP7 SSTORE POP PUSH2 0x319A JUMP JUMPDEST PUSH1 0x1F NOT DUP5 AND PUSH2 0x3149 DUP7 PUSH2 0x2F36 JUMP JUMPDEST PUSH0 JUMPDEST DUP3 DUP2 LT ISZERO PUSH2 0x3170 JUMPI DUP5 DUP10 ADD MLOAD DUP3 SSTORE PUSH1 0x1 DUP3 ADD SWAP2 POP PUSH1 0x20 DUP6 ADD SWAP5 POP PUSH1 0x20 DUP2 ADD SWAP1 POP PUSH2 0x314B JUMP JUMPDEST DUP7 DUP4 LT ISZERO PUSH2 0x318D JUMPI DUP5 DUP10 ADD MLOAD PUSH2 0x3189 PUSH1 0x1F DUP10 AND DUP3 PUSH2 0x309C JUMP JUMPDEST DUP4 SSTORE POP JUMPDEST PUSH1 0x1 PUSH1 0x2 DUP9 MUL ADD DUP9 SSTORE POP POP POP JUMPDEST POP POP POP POP POP POP JUMP JUMPDEST PUSH2 0x31AB DUP2 PUSH2 0x2C48 JUMP JUMPDEST DUP3 MSTORE POP POP JUMP JUMPDEST PUSH0 PUSH1 0x40 DUP3 ADD SWAP1 POP PUSH2 0x31C4 PUSH0 DUP4 ADD DUP6 PUSH2 0x31A2 JUMP JUMPDEST PUSH2 0x31D1 PUSH1 0x20 DUP4 ADD DUP5 PUSH2 0x28CA JUMP JUMPDEST SWAP4 SWAP3 POP POP POP JUMP JUMPDEST PUSH32 0x4E487B7100000000000000000000000000000000000000000000000000000000 PUSH0 MSTORE PUSH1 0x32 PUSH1 0x4 MSTORE PUSH1 0x24 PUSH0 REVERT JUMPDEST PUSH32 0x4E487B7100000000000000000000000000000000000000000000000000000000 PUSH0 MSTORE PUSH1 0x51 PUSH1 0x4 MSTORE PUSH1 0x24 PUSH0 REVERT INVALID LOG2 PUSH5 0x6970667358 0x22 SLT KECCAK256 SWAP1 RETURN SELFBALANCE CODESIZE NOT 0xF7 SWAP1 0xE1 SWAP6 NUMBER 0xA6 0xD7 0x4A 0xAA 0xCA 0xBB 0x1E 0x5D 0xEF 0xEF MUL 0xED 0xE DUP15 JUMP SDIV 0xC9 0xC9 MSTORE8 0xD6 0xF9 0x24 PUSH5 0x736F6C6343 STOP ADDMOD AND STOP CALLER "
		},
		"gasEstimates": {
			"creation": {
				"codeDepositCost": "2580800",
				"executionCost": "infinite",
				"totalCost": "infinite"
			},
			"external": {
				"addDrug((string,string,uint256,uint256,uint256,string[],uint256,uint256,uint8),uint256)": "infinite",
				"addEntity(address,string,uint8)": "infinite",
				"addParty((address,string,uint8,bool))": "infinite",
				"disableEntity(address,uint8)": "27416",
				"getASingleDrug(uint256)": "infinite",
				"getActivityStatus(address,uint8)": "3338",
				"getAllDrugs()": "infinite",
				"getEntity(address,uint8)": "infinite",
				"getEntityDetails(address,uint8)": "infinite",
				"getEntityDrugs()": "infinite",
				"getMyDrug()": "infinite",
				"getOwner()": "2582",
				"ownerAddress()": "2594",
				"sellDrug(address,uint256,uint256)": "infinite"
			}
		},
		"methodIdentifiers": {
			"addDrug((string,string,uint256,uint256,uint256,string[],uint256,uint256,uint8),uint256)": "67866403",
			"addEntity(address,string,uint8)": "a3733a1f",
			"addParty((address,string,uint8,bool))": "da08596b",
			"disableEntity(address,uint8)": "18ecd5c0",
			"getASingleDrug(uint256)": "b3818771",
			"getActivityStatus(address,uint8)": "2a166564",
			"getAllDrugs()": "5425c289",
			"getEntity(address,uint8)": "cdeeb70f",
			"getEntityDetails(address,uint8)": "e4f12fbb",
			"getEntityDrugs()": "b4753ed3",
			"getMyDrug()": "65da6696",
			"getOwner()": "893d20e8",
			"ownerAddress()": "8f84aa09",
			"sellDrug(address,uint256,uint256)": "acdcc16f"
		}
	},
	"abi": [
		{
			"inputs": [],
			"name": "EntityNotFound",
			"type": "error"
		},
		{
			"inputs": [],
			"name": "NotManufacturer",
			"type": "error"
		},
		{
			"inputs": [],
			"name": "NotOwner",
			"type": "error"
		},
		{
			"inputs": [],
			"name": "NotValidOperation",
			"type": "error"
		},
		{
			"inputs": [],
			"name": "OnwerCannotBeAdded",
			"type": "error"
		},
		{
			"anonymous": false,
			"inputs": [
				{
					"indexed": false,
					"internalType": "string",
					"name": "drugName",
					"type": "string"
				},
				{
					"indexed": false,
					"internalType": "string",
					"name": "manufacturerName",
					"type": "string"
				},
				{
					"indexed": false,
					"internalType": "uint256",
					"name": "barcodeId",
					"type": "uint256"
				}
			],
			"name": "DrugOwnershipTransfer",
			"type": "event"
		},
		{
			"anonymous": false,
			"inputs": [
				{
					"indexed": false,
					"internalType": "enum Types.Role",
					"name": "_role",
					"type": "uint8"
				},
				{
					"indexed": false,
					"internalType": "address",
					"name": "_entityAddress",
					"type": "address"
				}
			],
			"name": "EntityAdded",
			"type": "event"
		},
		{
			"anonymous": false,
			"inputs": [
				{
					"indexed": false,
					"internalType": "enum Types.Role",
					"name": "_role",
					"type": "uint8"
				},
				{
					"indexed": false,
					"internalType": "address",
					"name": "_entityAddress",
					"type": "address"
				}
			],
			"name": "EntityDisabled",
			"type": "event"
		},
		{
			"anonymous": false,
			"inputs": [
				{
					"indexed": false,
					"internalType": "string",
					"name": "name",
					"type": "string"
				},
				{
					"indexed": false,
					"internalType": "string",
					"name": "manufacturerName",
					"type": "string"
				},
				{
					"indexed": false,
					"internalType": "uint256",
					"name": "barcodeId",
					"type": "uint256"
				},
				{
					"indexed": false,
					"internalType": "uint256",
					"name": "manufactureDate",
					"type": "uint256"
				},
				{
					"indexed": false,
					"internalType": "uint256",
					"name": "expirationDate",
					"type": "uint256"
				}
			],
			"name": "NewProduct",
			"type": "event"
		},
		{
			"inputs": [
				{
					"components": [
						{
							"internalType": "string",
							"name": "drugName",
							"type": "string"
						},
						{
							"internalType": "string",
							"name": "manufacturerName",
							"type": "string"
						},
						{
							"internalType": "uint256",
							"name": "manufactureDate",
							"type": "uint256"
						},
						{
							"internalType": "uint256",
							"name": "expirationDate",
							"type": "uint256"
						},
						{
							"internalType": "uint256",
							"name": "barcodeId",
							"type": "uint256"
						},
						{
							"internalType": "string[]",
							"name": "compostion",
							"type": "string[]"
						},
						{
							"internalType": "uint256",
							"name": "drugCost",
							"type": "uint256"
						},
						{
							"internalType": "uint256",
							"name": "batchCount",
							"type": "uint256"
						},
						{
							"internalType": "enum Types.Stages",
							"name": "stage",
							"type": "uint8"
						}
					],
					"internalType": "struct Types.Drug",
					"name": "drug",
					"type": "tuple"
				},
				{
					"internalType": "uint256",
					"name": "currentTime",
					"type": "uint256"
				}
			],
			"name": "addDrug",
			"outputs": [],
			"stateMutability": "nonpayable",
			"type": "function"
		},
		{
			"inputs": [
				{
					"internalType": "address",
					"name": "entityAddress",
					"type": "address"
				},
				{
					"internalType": "string",
					"name": "entityName",
					"type": "string"
				},
				{
					"internalType": "enum Types.Role",
					"name": "role",
					"type": "uint8"
				}
			],
			"name": "addEntity",
			"outputs": [],
			"stateMutability": "nonpayable",
			"type": "function"
		},
		{
			"inputs": [
				{
					"components": [
						{
							"internalType": "address",
							"name": "entityAddress",
							"type": "address"
						},
						{
							"internalType": "string",
							"name": "entityName",
							"type": "string"
						},
						{
							"internalType": "enum Types.Role",
							"name": "entityRole",
							"type": "uint8"
						},
						{
							"internalType": "bool",
							"name": "isActive",
							"type": "bool"
						}
					],
					"internalType": "struct Types.Entity",
					"name": "entity",
					"type": "tuple"
				}
			],
			"name": "addParty",
			"outputs": [],
			"stateMutability": "nonpayable",
			"type": "function"
		},
		{
			"inputs": [
				{
					"internalType": "address",
					"name": "_entityAddress",
					"type": "address"
				},
				{
					"internalType": "enum Types.Role",
					"name": "_role",
					"type": "uint8"
				}
			],
			"name": "disableEntity",
			"outputs": [],
			"stateMutability": "nonpayable",
			"type": "function"
		},
		{
			"inputs": [
				{
					"internalType": "uint256",
					"name": "barcodeId",
					"type": "uint256"
				}
			],
			"name": "getASingleDrug",
			"outputs": [
				{
					"components": [
						{
							"internalType": "string",
							"name": "drugName",
							"type": "string"
						},
						{
							"internalType": "string",
							"name": "manufacturerName",
							"type": "string"
						},
						{
							"internalType": "uint256",
							"name": "manufactureDate",
							"type": "uint256"
						},
						{
							"internalType": "uint256",
							"name": "expirationDate",
							"type": "uint256"
						},
						{
							"internalType": "uint256",
							"name": "barcodeId",
							"type": "uint256"
						},
						{
							"internalType": "string[]",
							"name": "compostion",
							"type": "string[]"
						},
						{
							"internalType": "uint256",
							"name": "drugCost",
							"type": "uint256"
						},
						{
							"internalType": "uint256",
							"name": "batchCount",
							"type": "uint256"
						},
						{
							"internalType": "enum Types.Stages",
							"name": "stage",
							"type": "uint8"
						}
					],
					"internalType": "struct Types.Drug",
					"name": "",
					"type": "tuple"
				},
				{
					"components": [
						{
							"components": [
								{
									"internalType": "address",
									"name": "id",
									"type": "address"
								},
								{
									"internalType": "uint256",
									"name": "date",
									"type": "uint256"
								}
							],
							"internalType": "struct Types.EntityHistory",
							"name": "manufacturer",
							"type": "tuple"
						},
						{
							"components": [
								{
									"internalType": "address",
									"name": "id",
									"type": "address"
								},
								{
									"internalType": "uint256",
									"name": "date",
									"type": "uint256"
								}
							],
							"internalType": "struct Types.EntityHistory",
							"name": "distributor",
							"type": "tuple"
						},
						{
							"components": [
								{
									"internalType": "address",
									"name": "id",
									"type": "address"
								},
								{
									"internalType": "uint256",
									"name": "date",
									"type": "uint256"
								}
							],
							"internalType": "struct Types.EntityHistory",
							"name": "retailer",
							"type": "tuple"
						},
						{
							"components": [
								{
									"internalType": "address",
									"name": "id",
									"type": "address"
								},
								{
									"internalType": "uint256",
									"name": "date",
									"type": "uint256"
								}
							],
							"internalType": "struct Types.EntityHistory[]",
							"name": "customers",
							"type": "tuple[]"
						}
					],
					"internalType": "struct Types.DrugHistory",
					"name": "",
					"type": "tuple"
				}
			],
			"stateMutability": "view",
			"type": "function"
		},
		{
			"inputs": [
				{
					"internalType": "address",
					"name": "_entityAddress",
					"type": "address"
				},
				{
					"internalType": "enum Types.Role",
					"name": "_role",
					"type": "uint8"
				}
			],
			"name": "getActivityStatus",
			"outputs": [
				{
					"internalType": "bool",
					"name": "",
					"type": "bool"
				}
			],
			"stateMutability": "view",
			"type": "function"
		},
		{
			"inputs": [],
			"name": "getAllDrugs",
			"outputs": [
				{
					"components": [
						{
							"internalType": "string",
							"name": "drugName",
							"type": "string"
						},
						{
							"internalType": "string",
							"name": "manufacturerName",
							"type": "string"
						},
						{
							"internalType": "uint256",
							"name": "manufactureDate",
							"type": "uint256"
						},
						{
							"internalType": "uint256",
							"name": "expirationDate",
							"type": "uint256"
						},
						{
							"internalType": "uint256",
							"name": "barcodeId",
							"type": "uint256"
						},
						{
							"internalType": "string[]",
							"name": "compostion",
							"type": "string[]"
						},
						{
							"internalType": "uint256",
							"name": "drugCost",
							"type": "uint256"
						},
						{
							"internalType": "uint256",
							"name": "batchCount",
							"type": "uint256"
						},
						{
							"internalType": "enum Types.Stages",
							"name": "stage",
							"type": "uint8"
						}
					],
					"internalType": "struct Types.Drug[]",
					"name": "",
					"type": "tuple[]"
				}
			],
			"stateMutability": "view",
			"type": "function"
		},
		{
			"inputs": [
				{
					"internalType": "address",
					"name": "_entityAddress",
					"type": "address"
				},
				{
					"internalType": "enum Types.Role",
					"name": "_role",
					"type": "uint8"
				}
			],
			"name": "getEntity",
			"outputs": [
				{
					"components": [
						{
							"internalType": "address",
							"name": "entityAddress",
							"type": "address"
						},
						{
							"internalType": "string",
							"name": "entityName",
							"type": "string"
						},
						{
							"internalType": "enum Types.Role",
							"name": "entityRole",
							"type": "uint8"
						},
						{
							"internalType": "bool",
							"name": "isActive",
							"type": "bool"
						}
					],
					"internalType": "struct Types.Entity",
					"name": "",
					"type": "tuple"
				}
			],
			"stateMutability": "view",
			"type": "function"
		},
		{
			"inputs": [
				{
					"internalType": "address",
					"name": "entityId",
					"type": "address"
				},
				{
					"internalType": "enum Types.Role",
					"name": "role",
					"type": "uint8"
				}
			],
			"name": "getEntityDetails",
			"outputs": [
				{
					"components": [
						{
							"internalType": "address",
							"name": "entityAddress",
							"type": "address"
						},
						{
							"internalType": "string",
							"name": "entityName",
							"type": "string"
						},
						{
							"internalType": "enum Types.Role",
							"name": "entityRole",
							"type": "uint8"
						},
						{
							"internalType": "bool",
							"name": "isActive",
							"type": "bool"
						}
					],
					"internalType": "struct Types.Entity",
					"name": "",
					"type": "tuple"
				}
			],
			"stateMutability": "view",
			"type": "function"
		},
		{
			"inputs": [],
			"name": "getEntityDrugs",
			"outputs": [
				{
					"components": [
						{
							"internalType": "string",
							"name": "drugName",
							"type": "string"
						},
						{
							"internalType": "string",
							"name": "manufacturerName",
							"type": "string"
						},
						{
							"internalType": "uint256",
							"name": "manufactureDate",
							"type": "uint256"
						},
						{
							"internalType": "uint256",
							"name": "expirationDate",
							"type": "uint256"
						},
						{
							"internalType": "uint256",
							"name": "barcodeId",
							"type": "uint256"
						},
						{
							"internalType": "string[]",
							"name": "compostion",
							"type": "string[]"
						},
						{
							"internalType": "uint256",
							"name": "drugCost",
							"type": "uint256"
						},
						{
							"internalType": "uint256",
							"name": "batchCount",
							"type": "uint256"
						},
						{
							"internalType": "enum Types.Stages",
							"name": "stage",
							"type": "uint8"
						}
					],
					"internalType": "struct Types.Drug[]",
					"name": "",
					"type": "tuple[]"
				}
			],
			"stateMutability": "view",
			"type": "function"
		},
		{
			"inputs": [],
			"name": "getMyDrug",
			"outputs": [
				{
					"components": [
						{
							"internalType": "string",
							"name": "drugName",
							"type": "string"
						},
						{
							"internalType": "string",
							"name": "manufacturerName",
							"type": "string"
						},
						{
							"internalType": "uint256",
							"name": "manufactureDate",
							"type": "uint256"
						},
						{
							"internalType": "uint256",
							"name": "expirationDate",
							"type": "uint256"
						},
						{
							"internalType": "uint256",
							"name": "barcodeId",
							"type": "uint256"
						},
						{
							"internalType": "string[]",
							"name": "compostion",
							"type": "string[]"
						},
						{
							"internalType": "uint256",
							"name": "drugCost",
							"type": "uint256"
						},
						{
							"internalType": "uint256",
							"name": "batchCount",
							"type": "uint256"
						},
						{
							"internalType": "enum Types.Stages",
							"name": "stage",
							"type": "uint8"
						}
					],
					"internalType": "struct Types.Drug[]",
					"name": "",
					"type": "tuple[]"
				}
			],
			"stateMutability": "view",
			"type": "function"
		},
		{
			"inputs": [],
			"name": "getOwner",
			"outputs": [
				{
					"internalType": "address",
					"name": "",
					"type": "address"
				}
			],
			"stateMutability": "view",
			"type": "function"
		},
		{
			"inputs": [],
			"name": "ownerAddress",
			"outputs": [
				{
					"internalType": "address",
					"name": "",
					"type": "address"
				}
			],
			"stateMutability": "view",
			"type": "function"
		},
		{
			"inputs": [
				{
					"internalType": "address",
					"name": "partyId",
					"type": "address"
				},
				{
					"internalType": "uint256",
					"name": "barcodeId",
					"type": "uint256"
				},
				{
					"internalType": "uint256",
					"name": "currentTime",
					"type": "uint256"
				}
			],
			"name": "sellDrug",
			"outputs": [],
			"stateMutability": "nonpayable",
			"type": "function"
		}
	]
}